:020000040800F2
:100000009007002031020008990F0008E30800085B
:10001000950F0008030800080B15000800000000F9
:100020000000000000000000000000004302000883
:100030000708000800000000470200084902000805
:100040004B0200084B0200084B0200084B0200085C
:100050004B0200084B0200084B0200084B0200084C
:100060004B0200084B0200084B0200084B0200083C
:100070004B0200084B0200084B0200084B0200082C
:100080004B0200084B0200084B0200084B0200081C
:100090004B0200084B0200084B0200084B0200080C
:1000A0004B0200084B0200084B0200084B020008FC
:1000B0004B0200084B0200084B0200084B020008EC
:1000C0004B0200084B0200084B0200084B020008DC
:1000D0004B020008CD1200084B0200084B0200083A
:1000E0004B0200084B0200084B0200084B020008BC
:1000F0004B0200084B0200084B0200084B020008AC
:100100004B0200084B0200084B0200084B0200089B
:100110004B0200084B0200084B0200084B0200088B
:100120004B0200084B0200084B0200084B0200087B
:100130004B0200084B0200084B0200084B0200086B
:100140004B0200084B0200084B0200084B0200085B
:100150004B0200084B0200084B0200084B0200084B
:100160004B0200084B0200084B0200084B0200083B
:100170004B0200084B0200084B0200084B0200082B
:100180004B0200084B02000800F002F800F041F8B2
:100190000AA090E8000C82448344AAF10107DA45E2
:1001A00001D100F036F8AFF2090EBAE80F0013F0F3
:1001B000010F18BFFB1A43F001031847EC6200005F
:1001C0000C630000103A24BF78C878C1FAD85207EF
:1001D00024BF30C830C144BF04680C6070470000C1
:1001E0000023002400250026103A28BF78C1FBD840
:1001F000520728BF30C148BF0B607047642900F028
:100200006980002070471FB505F075FA1FBD10B555
:1002100010BD00F0CBFA1146FFF7F5FF03F0ECF844
:1002200000F0E9FA03B4FFF7F2FF03BC01F053FE5C
:100230000948804709480047FEE7FEE7FEE7FEE77A
:10024000FEE7FEE7FEE7FEE7FEE7FEE704480549B6
:10025000054A064B70470000651200088901000836
:1002600090010020900700209003002090030020C0
:10027000704710B54C1084EA530404D54042C1F1D4
:10028000000138BF491E1B4204D55242C3F100038E
:1002900038BF5B1E00F02EF914F0804F04D04042AE
:1002A000C1F1000138BF491E14F0004F04D0524282
:1002B000C3F1000338BF5B1E10BD00000FB404493A
:1002C00010B503AA029800F0F1F910BC5DF814FB18
:1002D000140000202DE9F04106460024106875291D
:1002E000314616A510D0AFF30080002802DA404254
:1002F00013A507E031688A0701D512A502E0490776
:1003000004D511A5012401E0AFF3008000210A22E9
:1003100006F1240709E0B0FBF2FCB0FBF2F302FBAC
:100320001C00303078541846491C0028F3D123466D
:100330002A463046BDE8F04100F05EB900000000FA
:100340002D0000002B000000200000002DE9F05FD0
:10035000894604464FF0000ADFF824B1FB44C0F898
:1003600020A02046E168884700287DD0252806D0B7
:10037000D4E901219047206A401C2062F1E7002562
:100380005F462046E16888472028064607DB312E75
:1003900005D2B81910F8200C08B10543F1E7A807F9
:1003A00001D525F00405C4F81CA00027C4F818A046
:1003B0002A2E09D0304601F087FD38B304EB8708B8
:1003C000303EC8F8186019E059F8041B204604EBC9
:1003D00087029161E1688847012F064618D1E069DC
:1003E000002820DA25F020051DE0D8F8180000EBE1
:1003F000800006EB40003038C8F818002046E1685D
:100400008847064601F060FD0028EED1012F0AD092
:100410002E2E08D12046E16888477F1C0646022F11
:1004200045F02005C4DBA069002803DA404245F00E
:100430000105A061E80701D025F01005A6B1A6F1DD
:100440004100192802D8203645F400654A46314655
:10045000204625604D46FFF7D1FE60B1012807D048
:10046000ED1D25F0070000E007E000F1080978E73E
:1004700005F1040975E730467AE7206ABDE8F09F88
:10048000F25F000040EA010310B59B070FD1042A78
:100490000DD310C808C9121F9C42F8D020BA19BA4F
:1004A000884201D9012010BD4FF0FF3010BD1AB1B4
:1004B000D30703D0521C07E0002010BD10F8013B09
:1004C00011F8014B1B1B07D110F8013B11F8014B30
:1004D0001B1B01D1921EF1D1184610BD02F0FF0383
:1004E00043EA032242EA024200F0F4B87047704740
:1004F0007047704753EA020C00F069802DE9F04B19
:100500004FF00006002B1FBFB3FA83F503FA05F482
:1005100024FA05F65E4012BF1643B2FA82F502FADB
:1005200005F4C5F120051EBF22FA05FC44EA0C04BF
:10053000203556EA044C4FEA144418BF641C4FF0AF
:1005400000084FF00009904271EB030C39D30029E9
:1005500019BFB1FA81F701FA07F6B0FA80F700FA8D
:1005600007F6C7F120071EBF20FA07FC46EA0C0673
:100570002037B6FBF4FCA7EB0507103F07F01F0B75
:10058000CBF120060CFA0BFB2CFA06F644BFB3465F
:100590000026202FA4BF5E464FF0000B5BEA060C3E
:1005A00008BF4FF0010B19EB0B09ABFB027C48EBCA
:1005B0000608C01B06FB02CC0BFB03CC71EB0C0145
:1005C000C1E70B46024641464846BDE8F08B13B5ED
:1005D0004FF000004FF00001AFF30080BDE81C4079
:1005E000704710B500F096F8006810BD10B50446CD
:1005F00000F090F8046010BD2DE9F0470D469946D3
:100600009246044600F124080168880604D5E06992
:1006100021F01001216000E00120A84201DD471B0C
:1006200000E00027A1697A1902EB0900081AA0610D
:100630002078C00602D42046AFF30080002608E0F0
:10064000D4E901211AF806009047206A401C761C64
:1006500020624E45F4DB2078C0060AD52046AFF371
:10066000008006E0D4E9012130209047206A401C38
:100670002062381EA7F10107F4DC07E0D4E901216C
:1006800018F805009047206A401C2062281EA5F13A
:100690000105F3DC2046AFF300802078000602D588
:1006A0000220BDE8F0870120FBE70000074B70B592
:1006B0000D467B4400F037F80446284600F046F823
:1006C00010B14FF0FF3070BD204670BD53260000C2
:1006D0004FF000020429C0F0128010F0030C00F06B
:1006E0003B80CCF1040CBCF1020F18BF00F8012BC9
:1006F000A8BF20F8022BA1EB0C0100F02DB85FEA97
:10070000C17C24BF00F8012B00F8012B48BF00F882
:10071000012B7047004870472C01002001694A1CDA
:1007200002610878704700B58FB0CDE90131002132
:10073000059105497944CDE9031011466846FFF754
:1007400005FE0FB000BD0000E5FFFFFF007B00F0DD
:10075000800070474FF0000200B51346944696465D
:10076000203922BFA0E80C50A0E80C50B1F12001C4
:10077000BFF4F7AF090728BFA0E80C5048BF0CC072
:100780005DF804EB890028BF40F8042B08BF7047D0
:1007900048BF20F8022B11F0804F18BF00F8012B42
:1007A00070470000004870472C0100207546FFF795
:1007B000F9FFAE4605006946534620F0070085461E
:1007C00018B020B5FFF742FDBDE820404FF000060D
:1007D0004FF000074FF000084FF0000B21F0070129
:1007E000AC46ACE8C009ACE8C009ACE8C009ACE86C
:1007F000C0098D4670470446AFF300802046FFF7DE
:1008000011FD00BFFEE77047F0B50A460021002346
:10081000002400BF3DE0012505FA01F3156805EA53
:1008200003049C4234D105684F000326BE40B54303
:10083000056015794E00B5400668354305601579A9
:10084000012D02D01579022D16D185684F0003269F
:10085000BE40B543856055794E00B5408668354346
:100860008560456801268E40B543456045689679A8
:100870008E40B6B235434560C5684F000326BE4082
:10088000B543C560D5794E00B540C6683543C560EF
:10089000491C1029BFD3F0BDF0B5002300244D073B
:1008A000ED0E02FA05F3CE1000F1200555F82650A2
:1008B0004E07F70E0F26BE40B543CF1000F12006BD
:1008C00046F82750CE1000F1200555F8265045EA8D
:1008D0000304CE1000F1200545F82640F0BD018349
:1008E000704700BFFEE7000010B500200F49086008
:1008F0000F48006820F440400D4908600846006831
:1009000040F48040086000200A49C1F89C0202209F
:1009100001F0B8FB012005490860022001F0B2FB9C
:1009200000200449C1F8980210BD0000988240429E
:1009300000040240008040421CB50121022000F06A
:1009400073FBC020009001208DF8040000208DF87A
:10095000060003208DF8050001208DF80700694688
:100960000448FFF751FF0120034908600349C1F81B
:100970009C021CBD0004024098824042008040421C
:1009800010B500200F4908600F48006820F440406F
:100990000D4908600846006840F480400860012066
:1009A0000A49C1F89C02022001F06CFB01200549B4
:1009B0000860022001F066FB00200449C1F898029B
:1009C00010BD000098824042000402400080404276
:1009D00070B5054600241648006820F440401449CC
:1009E0000860084600680860002616E000201149EB
:1009F0000860022001F046FB01200F49C1F898026F
:100A00006006040E0B487C38006808B1601CC4B254
:100A1000012001F037FB701CC6B2082EE6DB15B9C9
:100A2000FFF7AEFF01E0FFF75FFF204670BD00005B
:100A300000040240988240420080404270B5044663
:100A40001548006820F440401349086008460068D3
:100A500040F480400860002010490860002517E03D
:100A6000E0090E49091D08606006040E022001F02D
:100A700009FB01200A49C1F89802022001F002FB9B
:100A8000002006490860022001F0FCFA681CC5B28B
:100A9000082DE5DB70BD0000000402409882404252
:100AA0000080404210B50F48006820F440400D49D6
:100AB00008600846006840F48040086001200A4948
:100AC00008600A49C1F89802042001F0DBFA00200E
:100AD00005490860042001F0D5FA00200349C1F857
:100AE000980210BD000402409C82404200804042B7
:100AF00010B50F48006820F440400D4908600846D2
:100B0000006840F48040086000200A4908600A49F3
:100B1000C1F89C02042001F0B5FA012005490860E3
:100B20000549C1F89C02042001F0ACFA10BD000098
:100B300000040240988240420080404210B50024E8
:100B40001348006820F440401149086008460068D6
:100B5000086001200F49086001F094FA01200E4955
:100B6000C1F8980201F08EFA07E0601CC4B2FA2CBA
:100B700003DDFFF7BDFF012010BD06488038006887
:100B80000028F2D10349091F086000BFF4E7000004
:100B9000000402409C824042008040421CB501217A
:100BA000202000F041FA4FF48070009001208DF871
:100BB000040000208DF8060003208DF805000120B8
:100BC0008DF8070069461048FFF71EFE4FF40070CD
:100BD000009001208DF8040000208DF8060003200D
:100BE0008DF8050001208DF8070069460748FFF7DA
:100BF0000BFE4FF480710448FFF771FE4FF4007153
:100C00000248FFF76CFE1CBD0000024000080240D5
:100C10002DE9FC4104460D4616466B4606223B2153
:100C2000682000F0E1F80746BFB99DF801009DF883
:100C3000001040EA012000B220809DF803009DF8DA
:100C4000021040EA012000B228809DF805009DF8BE
:100C5000041040EA012000B230803846BDE8FC8133
:100C60002DE9FC4104460D4616466B4606224321FB
:100C7000682000F0B9F80746BFB99DF801009DF85B
:100C8000001040EA012000B220809DF803009DF88A
:100C9000021040EA012000B228809DF805009DF86E
:100CA000041040EA012000B230803846BDE8FC81E3
:100CB00010B52DED088B82B001AB022241216820D6
:100CC00000F092F89DF805009DF8041040EA01201C
:100CD00004B2204604F0C6F941EC1B0B9FED100B4B
:100CE00053EC102B04F066F841EC1A0B9FED0E0B41
:100CF00053EC102B03F0B6FF41EC190B03F080FF0F
:100D000008EE100A9FED0A0A28EE000ABDEEC00A9E
:100D100010EE100A00B202B0BDEC088B10BD00004E
:100D20000000000000407540A4703D0AD7434240D7
:100D30000000C84210B5FFF7FFFD80216B2000F0D6
:100D4000D7F8642001F082F900216B2000F0D0F880
:100D5000032000F08BF8002000F080F8322000F033
:100D6000AAF80021382000F0C3F800216A2000F022
:100D7000BFF80021232000F0BBF88021372000F0CD
:100D8000B7F8752000F013F80446682C0BD1012148
:100D90006B2000F0ADF800216C2000F0A9F83220A3
:100DA00000F089F801E0012010BD0020FCE770B5DB
:100DB0000446FFF777FED020FFF740FEFFF7BEFEA8
:100DC0002046FFF73BFEFFF7B9FEFFF76BFED12091
:100DD000FFF734FEFFF7B2FE0020FFF7F9FD0546EE
:100DE000FFF786FE284670BD2DE9F04106460F4606
:100DF00014461D46FFF756FE002141EA4601C8B2DF
:100E0000FFF71CFEFFF79AFE20B1FFF771FE0120ED
:100E1000BDE8F0813846FFF711FEFFF78FFEFFF7C0
:100E200041FE012101EB4601C8B2FFF707FEFFF7C3
:100E300085FE0DE0012C04D10020FFF7C9FD2870CC
:100E400003E00120FFF7C4FD2870601EC4B26D1CD2
:100E5000002CEFD1FFF74CFE0020D9E710B5044677
:100E6000E006010E1C2000F043F810BD10B504464A
:100E7000E006010E1B2000F03BF810BD70B50446E3
:100E80000025BC2C01DB012510E0622C01DB0225D2
:100E90000CE02A2C01DB032508E0142C01DB0425DF
:100EA00004E00A2C01DB052500E0062529461A206E
:100EB00000F01EF870BD70B50446B4F57A7F01DD10
:100EC0004FF47A74042C00DA04244FF47A7090FB07
:100ED000F4F0401EC5B22946192000F009F8054675
:100EE000264604EBD671C1F34F00FFF7C7FF70BD74
:100EF00070B505460C46FFF7D5FDD020FFF79EFDE7
:100F0000FFF71CFE18B1FFF7F3FD012070BD284666
:100F1000FFF794FDFFF712FE2046FFF78FFDFFF766
:100F20000DFE18B1FFF7E4FD0120EFE7FFF7E0FD4C
:100F30000020EBE72DE9F04105460E46174698469E
:100F4000FFF7B0FD002141EA4501C8B2FFF776FD89
:100F5000FFF7F4FD20B1FFF7CBFD0120BDE8F081E4
:100F60003046FFF76BFDFFF7E9FD00240CE018F8B1
:100F70000400FFF763FDFFF7E1FD18B1FFF7B8FDCF
:100F80000120EBE7601CC4B2BC42F0DBFFF7B0FD10
:100F90000020E3E700BFFEE77047000070B50021C6
:100FA00000230F22C4781CB3174C246804F4E064B7
:100FB000C4F5E064C4F30721C1F10404E3B20A41BB
:100FC00044789C40E1B28478144021430C07210E00
:100FD0000E4C05786155047804F01F050124AC40DF
:100FE00005786D11AD0005F1E025C5F8004109E077
:100FF000047804F01F050124AC40054D06787611F5
:1010000045F8264070BD00000CED00E000E400E073
:1010100080E100E002490143024A1160704700008C
:101020000000FA050CED00E029B1064A12680243FF
:10103000044B1A6004E0034A12688243014B1A60B1
:10104000704700003038024029B1064A1268024356
:10105000044B1A6004E0034A12688243014B1A6091
:101060007047000044380240F0B5002100220024FF
:10107000022500260223324F3F6807F00C0121B100
:10108000042905D0082937D105E02E4F076036E046
:101090002D4F076033E02A4F3F1F3F68C7F380564C
:1010A000274F3F1F3F6807F03F036EB1264FB7FB46
:1010B000F3F7DFF88CC0ACF1040CDCF800C0CCF323
:1010C000881C07FB0CF40CE01E4FB7FBF3F7DFF8AE
:1010D00070C0ACF1040CDCF800C0CCF3881C07FB3A
:1010E0000CF4174F3F1F3F68C7F301477F1C7D007B
:1010F000B4FBF5F7076002E0124F076000BF00BFC6
:101100000F4F3F6807F0F0010909104F7A5C07683C
:10111000D74047600A4F3F6807F4E051890A0B4FF8
:101120007A5C4768D7408760054F3F6807F46041A5
:10113000490B064F7A5C4768D740C760F0BD000096
:10114000083802400024F40040787D0100000020AF
:101150000CB50020019000903448006840F48030C5
:101160003249086000BF3148006800F40030009048
:101170000198401C0190009818B90198B0F5A04F53
:10118000F1D12A48006800F4003010B1012000902D
:1011900001E0002000900098012846D1234840300B
:1011A000006840F0805021494031086020480068C4
:1011B00040F440401E4908601C48083000681B4944
:1011C000083108600846006840F40040086008469E
:1011D000006840F4A05008601648091F0860081F06
:1011E000006840F08070091F086000BF0F48006869
:1011F00000F000700028F9D040F205700E49086038
:101200000A480830006820F00300084908310860E7
:101210000846006840F00200086000BF034808303C
:10122000006800F00C000828F8D10CBD003802401E
:101230000070004019544007003C0240042808D1C7
:101240004FF0E021096941F004014FF0E022116103
:1012500007E04FF0E021096921F004014FF0E0229E
:101260001161704710B51548006840F470001349CB
:1012700008601348006840F0010011490860002030
:101280000F49083108600E4800680E4908400C49B3
:1012900008600D48091D0860081F006820F48020C0
:1012A000091F0860002006490C310860FFF750FF55
:1012B0004FF0006001498039086010BD88ED00E002
:1012C00000380240FFFFF6FE1030002410B540F257
:1012D00025511D4800F057F810B31B4800F00CF9D9
:1012E000C4B21A48008800F40040C8B91748008802
:1012F00000F4804060B10A2C03D00020134908801C
:1013000020E01248008840F400401049088019E0AD
:101310000D2C06D10D48008840F480400B49088010
:1013200010E00A480088C0F30D0009490C54074832
:101330000088401C0549088008460088C72801DD50
:101340000020088010BD000000100140180000209F
:101350005400002021B1828942F40052828104E0CD
:1013600082894DF6FF731A40828170470246002041
:10137000B1F5007F00D100BF13880B400BB10120F5
:1013800000E00020704770B50246002400230025CD
:10139000002040F66A16B14200D100BFC1F34215E9
:1013A00001F01F03012606FA03F3012D02D19689ED
:1013B000334006E0022D02D1168A334001E0968ABE
:1013C00033400C12012606FA04F41688344013B197
:1013D0000CB1012000E0002070BDF0B503460024F0
:1013E00000260025002040F66A17B94200D100BF50
:1013F0001846C1F3421401F01F06012707FA06F54B
:10140000012C01D10C3004E0022C01D1103000E09D
:1014100014301AB107682F43076002E00768AF4332
:101420000760F0BD2DE9FF4705460E460024A146A2
:1014300000BFA046B08900B100BF2C8A24F44054FC
:10144000F08804432C82AC8941F20C608443B0885C
:1014500031890843718908430443AC81AC8A24F480
:101460004074B0890443AC826846FFF7FDFD204814
:10147000854202D01F48854202D1DDF80C9001E080
:10148000DDF80890A88900F4004040B109EBC900DC
:1014900000EB091031684900B0FBF1F707E009EBF8
:1014A000C90000EB091031688900B0FBF1F7642036
:1014B000B7FBF0F004012009642101FB1078A88932
:1014C00000F4004040B1322000EBC800B0FBF1F066
:1014D00000F00700044308E0322000EB081064210C
:1014E000B0FBF1F000F00F0004432C81BDE8FF8752
:1014F000001001400014014001468888C0F3080034
:101500007047C1F308028280704700BFFEE703B452
:1015100001984100009850EAC12018BF04204A0DEC
:1015200018BF40F0010040F2FF72B2EB515F08BFFC
:1015300040F00200012808BF052002B070470000FB
:1015400070B5C1482DED020B2DED0E8B82B0119DB3
:1015500025F000449FEDBEDB9FEDBFEB84423EDBF8
:10156000A4F140511098A1F17F6108430FD0BC480D
:10157000844202DC28D1109830B39DED100B02B0EC
:10158000BDEC0E8B02B0BDE8704000F069BC9DED73
:10159000100B53EC1D2B51EC100B03F07BFD9DED5C
:1015A000100B41EC180B53EC1E2B51EC100B03F0FD
:1015B00071FD53EC182B03F055FB41EC100B02B0FE
:1015C000BDEC0E8B02B070BD0120FFF70FF802B02A
:1015D000BDEC0E8B02B0BDE8704000F055BCA148D8
:1015E0009FEDA18B844256DA9DED100BB4F1795F2B
:1015F0000ADA51EC100BFFF78AFF042808BF00F04D
:1016000053FC9DED100BDAE753EC102B51EC100B53
:1016100003F040FD41EC190B95480621B0EE490A54
:10162000F0EE690A784400F09FFB53EC192B51EC63
:10163000100B03F02FFD41EC1A0B8E48B0EE490A57
:10164000F0EE690A0421784400F08EFB53EC192B6C
:1016500051EC100B03F01EFD53EC182B03F002FBB2
:1016600041EC100B51EC1A0B53EC102B03F0A2FBC6
:10167000CDE900019DED000B53EC102B9DED100BFF
:1016800051EC100B03F006FD9DED101B53EC112BDC
:1016900003F0E8FAD2E09DED100B51EC100B01F0D5
:1016A00027FB53EC182B03F0F3FD9FED730BCDE9F3
:1016B000000153EC102B9DED000B51EC100B03F0CF
:1016C000E9FC41EC190B6E480621B0EE490AF0EE38
:1016D000690A784400F048FB53EC192B51EC100BCD
:1016E00003F0D8FC41EC1B0B6648B0EE490AF0EE63
:1016F000690A0421784400F037FB53EC192B51ECB4
:10170000100B03F0C7FC53EC182B03F0ABFA41ECC1
:101710001C0B51EC190B03F02DF941EC180B5A4836
:101720009FED5BABA04222DC53EC1C2B51EC1B0B5E
:1017300003F040FBCDE900019DED000B51EC180BCF
:1017400053EC102B03F0A6FC53EC182B03F08AFA91
:1017500053EC1A2B03F09EFC53EC1D2B03F070FE90
:1017600053EC1E2B03F094FD41EC100B5FE08DED6C
:10177000008B002000909DED000B51EC180B53ECFA
:10178000102B03F06FFA9DED000B41EC1E0B53EC98
:10179000102B51EC100B03F07DFC53EC192B03F0D4
:1017A00077FD53EC1E2B03F005FB41EC190B53ECBA
:1017B0001C2B51EC1B0B03F0FDFA41EC1B0B53EC03
:1017C0001A2B51EC190B03F065FC53EC1D2B03F0A5
:1017D0005FFD41EC190B53EC1A2B51EC180B03F085
:1017E00059FC53EC1B2B03F055FC53EC192B03F065
:1017F00027FE9DED000B41EC180B53EC1A2B51EC1E
:10180000100B03F047FC9FED249B53EC192B03F0C6
:101810003FFD41EC100B51EC180B53EC102B03F077
:101820000FFE53EC192B03F033FD41EC100B002D90
:101830003FF7C5AE51EC100B03F0D6F941EC100B9D
:10184000BDE60000000000000000F03F00000000C6
:10185000075C143326A6913C182D4454FB21F93F14
:101860000000F07F0000E03F000000000000F03FBB
:10187000404D00004E4D0000000000000000E03F21
:10188000924C0000A04C00003333EF3F00000000FA
:101890000000000000000040182D4454FB21E93FE7
:1018A00070B59B482DED020B2DED068B079D25F0A5
:1018B0000044A04218DC9748844202DC0AD1069812
:1018C00040B19DED060BBDEC068B02B0BDE870404B
:1018D00000F0C6BA002DCCBF9FED8F0B9FED900B93
:1018E000BDEC068B02B070BD8F48A04215DD8F485D
:1018F000A042D8BF4FF0FF3458DD9DED060B51ECF0
:10190000100BFFF704FE042808BF00F0CDFA9DED90
:10191000060BBDEC068B02B070BD9DED060B51ECC5
:10192000100B01F0E5F9CDE9060181489FED828BAE
:10193000A0423CDD8248A0421FDD00249FED82AB27
:101940009DED060B53EC1A2B51EC100B03F08AF9AA
:101950009DED060B41EC190B53EC1A2B51EC100BBF
:1019600003F098FB53EC182B03F06AFD53EC192B92
:1019700003F020FACDE9060149E09DED060B0124B4
:1019800053EC182B51EC100B03F06CF99DED060B8A
:1019900041EC190B53EC182B51EC100B03F050FDDC
:1019A00053EC192B03F006FACDE906012FE0684845
:1019B000A0421FDD02249FED689B9DED060B53ECBA
:1019C000192B51EC100B03F065FB53EC182B03F0B3
:1019D00049F99DED060B41EC180B53EC192B51EC1A
:1019E000100B03F02DFD53EC182B03F0E3F9CDE9B8
:1019F00006010CE09DED060B032453EC102B9FED2C
:101A0000580B51EC100B03F0D5F9CDE906019DED13
:101A1000060B53EC102B51EC100B03F03BFB41EC8D
:101A2000180B53EC182B03F035FB41EC190B4E4807
:101A30000621B0EE490AF0EE690A784400F094F904
:101A400053EC182B51EC100B03F024FB41EC180B5A
:101A50004648B0EE490AF0EE690A0521784400F0E4
:101A600083F953EC192B51EC100B03F013FB41ECF1
:101A7000100B51EC180B53EC102B002C0EDA03F06A
:101A8000F1F89DED061B53EC112B03F003FB9DEDCC
:101A9000061B53EC112B03F0FBFB35E003F0E2F8DF
:101AA0009DED061B53EC112B03F0F4FA41EC100BE7
:101AB0002F48784400EBC40090ED001B51EC100B54
:101AC00053EC112B03F0BCFC9DED061B53EC112BCA
:101AD00003F0B6FC41EC100B2648784400EBC40040
:101AE00090ED001B51EC100B53EC112B03F0D0FBCD
:101AF00041EC100B002DA2BFBDEC068B02B070BDF7
:101B000051EC100B03F070F841EC100B01E70000F2
:101B1000000010440000F07F182D4454FB21F93FD1
:101B2000182D4454FB21F9BF0000DC3F0000203E8B
:101B30000000F33F00000000000000000000F03F44
:101B40000000E63F00000000000000000000004030
:101B50000080034000000000000000000000F83F8B
:101B6000000000000000F0BFE249000098490000BA
:101B700022490000DA48000070B56B4E2DED040BD1
:101B80002DED028B82B0DDF81CC0DDE905235C423F
:101B90002CF000411C4341EAD474049D22F0004023
:101BA000B44205D86C422C4340EAD474B4420BD9F9
:101BB0009DED061B9DED040B02B0BDEC028B04B045
:101BC000BDE8704000F056B9ACF14054A4F17F6418
:101BD0001C430BD0022404EAAC7444EAD2740543DB
:101BE0009FED538B9FED542B07D015E09DED040B1B
:101BF00051EC100B00F0D2F942E0002C11BF012C87
:101C00009DED040B02B0BDEC028B04BF04B070BDAF
:101C1000022C38D0032C3BD00B439FED491B9FED8A
:101C20004A0B0AD0B14218D1B04209D121F080410B
:101C300020F08040079105900FE0002A15DA10E0AF
:101C4000434B7B44002C08BF93ED000B0DD0012CBF
:101C500010D0022C17D0032C1AD0B0421DD1002A6C
:101C600003DAB0EE410AF0EE610A02B0BDEC028B7D
:101C700004B070BD93ED000B51EC100B02F0B4FFFB
:101C800041EC100BF1E7B0EE480AF0EE680AECE721
:101C9000B0EE420AF0EE620AE7E7401A00153C286F
:101CA000C8BF8DED000B19DCBCF1000FBEBF10F1F9
:101CB0003C0F9FED290B8DED000B0FDB9DED060B0F
:101CC00053EC102B9DED040B51EC100B03F072F84C
:101CD00001F00EF800F062F9CDE90001002C08BF18
:101CE0009DED000BC1D0012C10D0022C9FED1C0BE0
:101CF00053EC102B9DED000B51EC100B0DD003F0AD
:101D00009FFB53EC182B03F09BFBB9E7019880F085
:101D1000004001909DED000BA7E703F091FB53EC11
:101D2000182B03F0B5FAABE70000F07F00000000CD
:101D3000182D4454FB210940182D4454FB2109C09F
:101D4000182D4454FB21F9BF182D4454FB21F93FB1
:101D50000A48000000000000000000000000000031
:101D6000075C143326A6A13C70B504462DED028B0A
:101D70004D1E00EBC500B0EE408AF0EE608A90ED9B
:101D8000000B35F0060017D053EC182B51EC100B5C
:101D900003F080F941EC100B6D1E04EBC50090EDD3
:101DA000001B51EC100B53EC112B02F05BFF41ECCC
:101DB000100B35F00600E7D1022D36D0042D1CD0D3
:101DC000062D1CBFBDEC028B70BD53EC182B51ECE3
:101DD000100B03F05FF994ED0A1B53EC112B02F08A
:101DE00041FF53EC182B03F055F994ED081B53EC0D
:101DF000112B02F037FF41EC100B53EC182B51EC78
:101E0000100B03F047F994ED061B53EC112B02F075
:101E100029FF53EC182B03F03DF994ED040B53EC20
:101E2000102B02F01FFF41EC100B53EC182B51EC60
:101E3000100B03F02FF994ED021B53EC112B02F061
:101E400011FF53EC182B03F025F994ED001B53EC14
:101E5000112B02F007FFBDEC028B41EC100B70BDA3
:101E600010B553EC102B51EC100B02F0FBFE41ECC3
:101E7000100B10BD10B553EC112B51EC100B02F0F0
:101E8000F1FE41EC100B10BD9FED050B10B553ECAE
:101E9000102B51EC100B02F08DFF41EC100B10BD1C
:101EA00000000000000000009FED050B10B553EC92
:101EB000102B51EC100B03F0EDF841EC100B10BDA2
:101EC000000000000000001030380A2801D2012074
:101ED00070470020704700BF70470000F0B52DED3F
:101EE000028B83B006460F460025684600F01AFFB5
:101EF000002447E056F8241057F82420881A0028B8
:101F000001DB014600E0414200EE101AB8EEC00AC3
:101F1000DFED200A80EE208A684600EB840090ED19
:101F2000000AB5EEC00AF1EE10FA18D0684600EBD0
:101F30008400D0ED000A88EE200AF7EE000A70EE69
:101F4000608AB0EEE80A1448D0ED090AB4EEE00A5F
:101F5000F1EE10FA15DD0120A040054311E00E4816
:101F600090ED070AB4EEC80AF1EE10FA06DC90ED27
:101F7000080AB4EEC80AF1EE10FA02D20120A0401D
:101F80000543641C032CB5DB284603B0BDEC028B73
:101F9000F0BD0000000080473457000810B541EC48
:101FA000100BFFF77DFC51EC100B10BD2DE9F0413B
:101FB0000446E07800F0C006E07800F03F05607865
:101FC00000F0010098B1EF102846E91705EB5171B8
:101FD000C910A5EBC101491C01F0FF080B480068BE
:101FE00020B10A48414602683846904700BF6078F1
:101FF00000F0080030B10548406818B1B011034A3C
:10200000516888470020BDE8F08100001C010020D5
:1020100010B504466FF00400FFF710F9E11704EB68
:102020005171C1F3C701074A11701046007800EBE7
:102030004001C1EBC0104FF6FF7101EAC000024938
:10204000088010BD100000201200002070B504466A
:102050004FF4077094FBF0F0C6B24FF4077094FB96
:10206000F0F100FB114085B205E04FF4077000F07D
:102070002FF8701EC6B2002EF7D115B1284600F019
:1020800027F870BD0146114A12784A434FF0E02309
:102090005A6100229A611A46126942F001021A61DD
:1020A00000BF4FF0E022106900F001021AB100F405
:1020B0008032002AF5D04FF0E022126922F00102AE
:1020C0004FF0E0231A6100229A617047100000204F
:1020D0000146114A12884A434FF0E0235A61002218
:1020E0009A611A46126942F001021A6100BF4FF06C
:1020F000E022106900F001021AB100F48032002AD7
:10210000F5D04FF0E022126922F001024FF0E023F7
:102110001A6100229A6170471200002038B5044607
:1021200064B120208DF8000028208DF801003020B7
:102130008DF8020038208DF8030004E0A32204216A
:102140006846FEF7CBF96A46042140F69E2002F06D
:102150003BFB01F025FF38BD3EB5044602208DF85B
:102160000000CA208DF80100E3208DF8020009204C
:102170008DF803006A460421682002F025FBA320A5
:102180008DF8000004F0400048B1C0208DF8010037
:10219000C8208DF80200C2208DF8030006E0A320BD
:1021A0008DF801008DF802008DF8030004F4C07072
:1021B00048B1C4208DF80400CC208DF80500C6205D
:1021C0008DF8060006E0A3208DF804008DF80500C8
:1021D0008DF80600A3208DF807008DF808008DF813
:1021E00009006A460A2140F6A72002F0EDFA04F041
:1021F000030018B120208DF8000002E0D8208DF8EF
:1022000000006A46012140F6B62002F0DDFA04F033
:10221000200018B1012000F0ADF802E0002000F02D
:10222000A9F804F4C07008B304F4807060B1B2205F
:102230008DF800008B208DF80100B6208DF802008B
:102240009B208DF803000BE0B0208DF8000080206B
:102250008DF80100B4208DF8020090208DF8030065
:102260006A46042140F6A22002F0AEFA04F0010012
:1022700020B3F8208DF800006A4601214FF40B606E
:1022800002F0A2FAFA21072000F02CFC072000F04F
:10229000F3FB012000F013FC642000F003FD4FF479
:1022A000FA7000F012FDC821304800F0A3FB28208E
:1022B00000F0BCFB0A2000F0CCFB08E0D8208DF831
:1022C00000006A4601214FF40B6002F07DFA04F031
:1022D000020018B1D9208DF8000002E0D8208DF856
:1022E00000006A46012140F23D7002F06DFA04F0F0
:1022F000040018B1012000F069F802E0002000F0AD
:1023000065F804F0100018B10120FFF707FF02E0A4
:102310000020FFF703FF44F008001549488101F051
:102320003FFE00201249887304F0400018B10846AF
:10233000807B801D887304F4C07020B10C48807BC2
:10234000801D0B49887304F0140020B10848807B7D
:1023500010300749887304F0030020B10448807BE3
:10236000001D0349887300203EBD000009E3CA0236
:102370001C0100203EB504466CB10EA1D1E900203D
:102380008968CDE9002002916A4609214FF49760DF
:1023900002F01AFA3EBD0AA2D2E900109268CDE915
:1023A000010200916A4609214FF4976002F00CFA8D
:1023B000F0E70000B8AAB38DB4980D355D000000B9
:1023C000B8AAAAAAB088C3C5C700000038B5044699
:1023D00064B1C0208DF80000C2208DF80100C42037
:1023E0008DF80200C6208DF8030004E08B22042142
:1023F0006846FEF773F86A46042140F6982002F01A
:10240000E3F901F0CDFD38BD10B5C8234FF480626B
:10241000024940F6F63001F057FC10BD5C57000849
:102420002DE9F04F8DB00746884615469946DDE9FF
:10243000166B0024002030806B49887B5A4605A922
:1024400001F00EFD18B1601E0DB0BDE8F08F6648BA
:10245000807A00F01400002867D09DF81400000670
:102460009DF8151040EA01409DF8161040EA012041
:102470009DF81710084328609DF8180000069DF885
:10248000191040EA01409DF81A1040EA01209DF819
:102490001B10084368609DF81C0000069DF81D1085
:1024A00040EA01409DF81E1040EA01209DF81F10EF
:1024B0000843A8609DF8200000069DF8211040EA1E
:1024C00001409DF8221040EA01209DF823100843A6
:1024D000E86004F11000C4B2286800140190686834
:1024E00000140290A86800140390E8680014049097
:1024F00001984043029901FB0100039901FB01008F
:10250000049901FB010ABAF1706F02DBBAF1885F2E
:1025100005DD01F045FD00203080401E94E7B6F94E
:10252000000040F48070308000BF2F48807A00F0B7
:10253000400020B305A9601C085C095D40EA012049
:1025400000B2A8F8000005A9E01C095C05AAA01CBF
:10255000105C41EA002000B2A8F8020005A9601D45
:10256000095C201D105C41EA002000B2A8F80400BC
:10257000A01DC4B2B6F9000040F0080030801A482F
:10258000408900F4C07008B305A9601C085C095DAF
:1025900040EA012000B2388005A9E01C095C05AAC8
:1025A000A01C105C41EA002000B2788005A9601DE3
:1025B000095C201D105C41EA002000B2B880A01D1B
:1025C000C4B2B6F9000040F0700030800648807A4E
:1025D00000F0030018B105A90819FFF7E7FC484609
:1025E00000F0CEFF00202FE71C01002070B588B05E
:1025F000064601A801F0B4F9BDF804000021C903A2
:1026000041EA5045C4034448007A00F0030056F8FC
:10261000200005904048007A00F0040010B10598B1
:10262000404205903C48007AC0F3C10056F82000B3
:1026300006903948007A00F0200010B10698404218
:1026400006903548007AC0F3811056F820000790B4
:102650003148008900F4807010B10798404207901B
:102660000598C117A0FB042301FB043100FB0510F2
:10267000810041EA927005900698C117A0FB0423DF
:1026800001FB043100FB0510810041EA92700690C5
:102690000798C117A0FB042301FB043100FB0510C0
:1026A000810041EA927007900598000E8DF80800AD
:1026B0000598000C8DF809000598000A8DF80A00AD
:1026C0000598C0B28DF80B000698000E8DF80C002E
:1026D0000698000C8DF80D000698000A8DF80E0083
:1026E0000698C0B28DF80F000798000E8DF8100004
:1026F0000798000C8DF811000798000A8DF8120059
:102700000798C0B28DF8130002AA0C214FF425706F
:1027100002F05AF808B070BD1C01002030B585B039
:10272000044616A207CA02AB07C3C82C03DD4FF04C
:10273000FF3005B030BDC82090FBF4F0401E85B2DC
:10274000280A8DF80000E8B28DF801006A460221DF
:1027500040F2162002F038F810B14FF0FF30E8E7F1
:1027600002AA0C2140F6C12002F02EF810B14FF061
:10277000FF30DEE7044884810020DAE7FEF2ABC4D4
:10278000AAF1DFDFBBAFDFDF1C0100201FB504466D
:102790004848007A00F0030054F8200001904548B2
:1027A000007A00F0040010B10198404201904148C5
:1027B000007AC0F3C10054F8200002903D48007A2E
:1027C00000F0200010B10298404202903948007A8F
:1027D000C0F3811054F8200003903648008900F4BB
:1027E000807010B10398404203903349019880FBF8
:1027F0000101800F40EA810001902F49029880FB7F
:102800000110820042EA917002902B49039880FBEC
:102810000110820042EA917003900198000E8DF839
:1028200000000198000C8DF801000198000A8DF855
:1028300002000198C0B28DF803006A4604214FF4EB
:10284000747001F0C1FF18B14FF0FF3004B010BD3B
:102850000298000E8DF800000298000C8DF801001F
:102860000298000A8DF802000298C0B28DF80300A9
:102870006A4604214FF4757001F0A6FF10B14FF0C5
:10288000FF30E3E70398000E8DF800000398000C7A
:102890008DF801000398000A8DF802000398C0B279
:1028A0008DF803006A4604214FF4767001F08CFF26
:1028B000CCE700001C01002009E3CA0210B586B075
:1028C000044647A00068039046A00068029046A016
:1028D0000068019045A00068009004F0030003A97F
:1028E000085C8DF8140003A8C4F3C101405C8DF8A6
:1028F000150003A8C4F38111405C8DF8160004F0A4
:10290000030002A9085C8DF8100002A8C4F3C101FD
:10291000405C8DF8110002A8C4F38111405C8DF871
:10292000120005AA032140F2264001F04DFF18B124
:102930004FF0FF3006B010BD04AA032140F22A4038
:1029400001F042FF10B14FF0FF30F3E7019805901E
:102950000098049004F0040058B19DF8140040F071
:1029600001008DF814009DF8100040F001008DF872
:10297000100004F0200058B19DF8150040F001004F
:102980008DF815009DF8110040F001008DF8110040
:1029900004F4807058B19DF8160040F001008DF8E5
:1029A00016009DF8120040F001008DF8120005AAF3
:1029B00003214FF4886001F007FF10B14FF0FF30A2
:1029C000B8E704AA032140F2314001F0FDFE10B146
:1029D0004FF0FF30AEE7064804810020AAE7000070
:1029E0004CCD6C000CC92C0036567600264666008D
:1029F0001C010020F8B505460E464FF47A7095FB91
:102A0000F0F000FB06F4200E8DF80000200C8DF88D
:102A10000100200A8DF80200E0B28DF803006A463A
:102A200004214FF4AE7001F0CFFEF8BD38B5044676
:102A3000052094FBF0F084B220128DF80000E0B283
:102A40008DF801006A4602214FF4AD7001F0BCFE22
:102A500038BD38B50446052094FBF0F084B220124E
:102A60008DF80000E0B28DF801006A4602214FF4B3
:102A7000AC7001F0A9FE38BD38B5044600200090C6
:102A800004F0010020B19DF8000040F030000090FB
:102A900004F0020020B19DF8000040F00C0000900E
:102AA00004F0040020B19DF8000040F00300009005
:102AB0006A4601214FF4A47001F086FE38BD38B596
:102AC0000446012C01DA012402E0042C00DD042478
:102AD000601EC0B200906A46012140F24F1001F022
:102AE00073FE38BDF0B52DED028B83B006460F4660
:102AF00006F0070010B1B7F5C86F05DD4FF0FF30E5
:102B000003B0BDEC028BF0BD00EE107AB8EE400AC7
:102B1000DFED5B0A80EE208A01A800F0FBFE9DF845
:102B20000400022806D0042817D0082828D010282E
:102B30004CD138E09FED530A28EE000ABCEEC00AE3
:102B400010EE100A84B29FED500A28EE000ABCEE87
:102B5000C00A10EE100A85B23BE09FED4C0A28EE49
:102B6000000ABCEEC00A10EE100A84B29FED480ABB
:102B700028EE000ABCEEC00A10EE100A85B228E06A
:102B80009FED440A28EE000ABCEEC00A10EE100ABF
:102B900084B29FED410A28EE000ABCEEC00A10EE96
:102BA000100A85B215E09FED3D0A28EE000ABCEE42
:102BB000C00A10EE100A84B29FED390A28EE000A0E
:102BC000BCEEC00A10EE100A85B202E04FF0FF30F2
:102BD00096E700BF20128DF80800E0B28DF80900DA
:102BE00028128DF80A00E8B28DF80B0006F00100FB
:102BF000A0B102AA02214FF4EA7001F0E5FD10B184
:102C00004FF0FF307CE70DF10A0202214FF4927081
:102C100001F0DAFD10B14FF0FF3071E706F002006D
:102C2000A0B102AA02214FF4EC7001F0CDFD10B169
:102C30004FF0FF3064E70DF10A0202214FF4947067
:102C400001F0C2FD10B14FF0FF3059E706F004006B
:102C5000A0B102AA02214FF4EE7001F0B5FD10B14F
:102C60004FF0FF304CE70DF10A0202214FF496704D
:102C700001F0AAFD10B14FF0FF3041E700203FE71F
:102C80000000484300008046000040460000004627
:102C90000000C045000080450000404500000045A0
:102CA0000000C04438B50446052094FBF0F085B21E
:102CB00028128DF80000E8B28DF801006A46022162
:102CC0004FF4EF7001F080FD38BD38B504460520A3
:102CD00094FBF0F085B228128DF80000E8B28DF870
:102CE00001006A4602214FF4ED7001F06DFD38BD20
:102CF00082B0CDE9000121F0004001909DED000B74
:102D000002B051EC100B704700BF054A128802F068
:102D10004002002AF9D0C2B2014B9A8070470000ED
:102D2000001001407CB505462E494968087801AB82
:102D300004220D21FEF758F808B107207CBD9DF84C
:102D40000700C0F301109DF8041001F0E00140EA13
:102D5000E1008DF800009DF80700C0F381009DF8A8
:102D6000051001F0E00140EAE1008DF801009DF856
:102D7000070000F003009DF8061001F0E00140EAB2
:102D8000E1008DF80200002427E01DF8040030B9AE
:102D90009FED150A05EB840080ED000A1BE09FED16
:102DA000130A05EB840080ED000A0BE005EB8400BC
:102DB00090ED000ADFED0E0A20EE200A05EB8400FC
:102DC00080ED000A1DF80400401EC0B20DF804009A
:102DD0000028EBD100BF601CC4B2032CD5DB00205F
:102DE000ACE700001C000020000000007B14AE3E99
:102DF0001D5A843F2DE9F04F87B005460C46914699
:102E000001208DF8100000208DF81100FE4A126894
:102E1000917CFD4A5268107804AB0222FEF78AF8D2
:102E200020B14FF0FF3007B0BDE8F08FC820FFF7AA
:102E30000DF900208DF81000F34A1268D17BF24A98
:102E40005268107804AB0122FEF774F810B14FF00D
:102E5000FF30E8E7EC4A12685179EB4A5268107883
:102E600004AB0122FEF766F810B14FF0FF30DAE74D
:102E7000E54A1268917CE44A5268107804AB01225A
:102E8000FEF758F810B14FF0FF30CCE7DE4A126879
:102E9000D17DDD4A5268107804AB0122FEF74AF872
:102EA00010B14FF0FF30BEE7D74A12681179D64A09
:102EB0005268107804AB0122FEF73CF810B14FF0D5
:102EC000FF30B0E70C208DF81000CF4A126811795E
:102ED000CD4A5268107804AB0122FEF72BF810B1EE
:102EE0004FF0FF309FE70F20FFF7B0F8C648806A29
:102EF000407A8DF81000C44A12689178C24A52682C
:102F0000107804AB0122FEF715F810B14FF0FF3036
:102F100089E7BD48806A007A8DF81000BA4A1268C5
:102F20005178B94A5268107804AB0122FEF702F8D2
:102F300010B14FF0FF3076E7B9F1000F07D0B2487B
:102F4000806A807A40F0E0008DF8100004E0AE481E
:102F5000806A807A8DF81000AB4A12689179AA4A8B
:102F60005268107804AB0122FDF7E4FF10B14FF076
:102F7000FF3058E7B9F1000F07D0A348806AC07A44
:102F800040F0E0008DF8100003E0A048C07A8DF812
:102F900010009D4A1268D1799B4A5268107804ABA0
:102FA0000122FDF7C7FF10B14FF0FF303BE7B9F149
:102FB000000F02D0C820FFF749F840208DF810001C
:102FC000914A12681179904A5268107804AB012234
:102FD000FDF7B0FF10B14FF0FF3024E778208DF8F7
:102FE0001000894A12685179874A5268107804ABF8
:102FF0000122FDF79FFF10B14FF0FF3013E7834927
:103000008889FFF723F800208DF810007E4A1268A7
:1030100051797D4A5268107804AB0122FDF78AFF8E
:1030200010B14FF0FF30FEE6774A1268917A764A87
:103030005268107804AB0222FDF7D6FE10B14FF0B3
:10304000FF30F0E69DF811009DF8101040EA012BCA
:103050000C209BFBF0F0C6B20020A86068602860DE
:10306000A06060602060824665E0674A1268D17A9D
:10307000654A5268107804AB0C22FDF7B5FE10B11A
:103080004FF0FF30CFE69DF811009DF8101040EA98
:10309000012000B2ADF808009DF813009DF8121051
:1030A00040EA012000B2ADF80A009DF815009DF835
:1030B000141040EA012000B2ADF80C00BDF9081070
:1030C000206808442060BDF90A1060680844606008
:1030D000BDF90C10A0680844A0609DF817009DF889
:1030E000161040EA012000B2ADF800009DF819006A
:1030F0009DF8181040EA012000B2ADF802009DF8DA
:103100001B009DF81A1040EA012000B2ADF804003F
:10311000BDF90010286808442860BDF902106868ED
:1031200008446860BDF90410A8680844A8600AF162
:10313000010000F0FF0AB24597DB3448D0F800C028
:103140002868C117090441EA1041070462460023B8
:103150003846FDF78EF832460023CDE90201FDF72F
:1031600088F828602948D0F800C06868C1170904A9
:1031700041EA10410704624600233846FDF779F81A
:1031800032460023CDE90201FDF773F868601F485D
:10319000D0F800C0A868C117090441EA104107042B
:1031A000624600233846FDF764F832460023CDE935
:1031B0000201FDF75EF8A8601448D0F804C0216849
:1031C000C817000440EA11480F046246002338463D
:1031D0004146FDF74EF832460023CDE90201FDF7E6
:1031E00048F820600948D0F804C06068C117090495
:1031F00041EA10410704624600233846FDF739F8DA
:103200003246002304E000001C0000203457000870
:10321000CDE90201FDF72DF860601148D0F804C037
:10322000A068C117090441EA10410704624600235F
:103230003846FDF71EF832460023CDE90201FDF7BE
:1032400018F8A060A068002804DDA068A0F5803010
:10325000A06003E0A06800F58030A0600020E2E5F7
:1032600034570008F0B52DED048B81B006460F46AB
:1032700000253E49496808786B4603220D21FDF779
:10328000B3FD20B1072001B0BDEC048BF0BD9DF86B
:10329000000000F01F008DF800009DF8010000F014
:1032A0001F008DF801009DF8020000F01F008DF84E
:1032B0000200002455E056F8241057F82420881AFC
:1032C000002801DB014600E0414200EE101AB8EE92
:1032D000C00ADFED270A80EE208A1DF8040068B3DB
:1032E000244890ED000AB8EE400ADFED230A80EE94
:1032F000801AF0EE418A05E09FED200A28EE800A50
:10330000F0EE408A1DF80400401EC0B20DF8040023
:103310000028F1D188EE280AF7EE000A30EE609A14
:10332000B0EEC90A1348D0ED060AB4EEE00AF1EE99
:1033300010FA15DD0120A040054311E00D4890ED85
:10334000040AB4EEC80AF1EE10FA06DC90ED050AA4
:10335000B4EEC80AF1EE10FA02D20120A0400543F3
:10336000641C032CA7DB28468DE700001C0000200E
:10337000000080473457000800B04C4554E3853FB7
:1033800010B50446204600F00FF80346E01C00F09C
:103390000BF843EAC00083B2A01D00F005F843EA31
:1033A000801083B2184610BD014691F90020002A12
:1033B00001DD00201EE091F90020002A01DA04203E
:1033C00018E091F90120002A01DD012012E091F9B5
:1033D0000120002A01DA05200CE091F90220002AE0
:1033E00001DD022006E091F90220002A01DA062020
:1033F00000E00720704700008EB0002601254FF442
:10340000A060FDF707FEA820FEF702FE584801F075
:10341000E9FAFDF7C3FBFDF78DFC00BF00F02CFAC5
:103420000028FBD1A2E00BAA0CA90DA800F018F906
:1034300000287CD1FDF73CFC044608AA09A90AA88B
:10344000FDF7E6FB05AA06A907A8FDF709FC7DB173
:10345000BDF91400BDF91810CDE90010BDF91C30FC
:10346000BDF92020BDF92410BDF9280000F089F82D
:103470009DB39DED0B0AF2EE040A20EE200ABDEE8C
:10348000C00A10EE100A00B29DED0D0ADFED390AF8
:1034900020EE200ABDEEC00A10EE101A09B29DED12
:1034A0000C0ADFED340A20EE200ABDEEC00A10EE51
:1034B000102A12B2BDF91430CDE90132CDE9031062
:1034C000BDF918000090BDF91C30BDF92020BDF9F0
:1034D0002410BDF9280001F016FB0A2096FBF0F13C
:1034E00000FB116000283FD1002C01DA604204B2D9
:1034F0009DED0D0AF2EE040A20EE200ABDEEC00A90
:1035000010EE100A04B2002C01DA604204B29DED04
:103510000C0AF2EE040A20EE200ABDEEC00A10EEFC
:10352000100A04B2002C01DA604204B200E01BE091
:103530009DED0B0AF2EE040A20EE200ABDEEC00A51
:1035400010EE100A04B2002C01DA604204B2002628
:103550000948006808B9012000E000200649086019
:1035600001210648FDF7CDFF701CC6B25BE70000E5
:1035700020A107000000C842A00240420010014004
:1035800070472DE9FE4304460D4617461E46DDE909
:103590000A89200A8DF80000E0B28DF80100280A9F
:1035A0008DF80200E8B28DF80300380A8DF80400A7
:1035B000F8B28DF80500300A8DF80600F0B28DF8EB
:1035C00007004FEA18208DF8080008F0FF008DF87A
:1035D00009004FEA19208DF80A0009F0FF008DF864
:1035E0000B000C226946A12001F052FABDE8FE83CF
:1035F00070B50446002624F00104184890F8240011
:1036000008B1002070BD1548807A10B94FF0FF3026
:10361000F8E71248057C807A204010490874084673
:10362000007CA04202D04FF0FF3600E0002614B923
:103630000A48007D18B1012001F054F902E0002091
:1036400001F050F93CB100F0ABFC20B10348057427
:103650004FF0FF30D6E73046D4E700001C000020D2
:1036600070B52DED0C8B8EB004460D461646B7EEA8
:10367000000AF0EE409A9FED7C0AB0EE408A9FED82
:103680007A0AF0EE408A9FED780AB0EE409A07A8D9
:1036900008A90DAB03AACDE9001009A90BA8FEF7F4
:1036A000BFFE20B101200EB0BDEC0C8B70BDBDF88B
:1036B000200000F4807000287ED09DED030AB8EE53
:1036C000C00ADFED6A0A80EE201AF0EE419A9DED05
:1036D000040AB8EEC00ADFED650A80EE201AB0EEEB
:1036E000418A9DED050AB8EEC00ADFED600A80EE62
:1036F000201AF0EE418A9DED060AB8EEC00ADFED11
:103700005B0A80EE201AB0EE419AB8EE000A28EE6D
:10371000000A20EE090AF0EE000A69EEA00A00EEA7
:10372000A80A10EE101A084601F074FF41EC1C0BB9
:10373000B0EE4C0AF0EE6C0AFDF702FFB0EE40BAB4
:10374000F0EE60BA9FED4A0B53EC102B51EC1B0BC3
:1037500001F0A0FC41EC1A0B01F052FA2060B8EE27
:10376000000A28EE000A20EE080AF0EE000A68EED1
:10377000A00A00EEE80AF7EE000A30EE200A10EE8A
:10378000101A084601F046FF41EC1C0BB0EE000A8F
:1037900028EE800A20EE090AF0EE000A69EEA00A7F
:1037A00000EE880A10EE101A084601F033FF41ECD3
:1037B0001D0BB0EE4C1A00E052E0F0EE6C1AB0EEC9
:1037C0004D0AF0EE6D0AFEF7D7F9B0EE40BAF0EE12
:1037D00060BA9FED270B53EC102B51EC1B0B01F043
:1037E00059FC41EC1A0B01F00BFA286029EEA90AEA
:1037F00008EE080A08EEE80A09EE490A10EE101A67
:10380000084601F007FF41EC1C0B28EE280A09EEE0
:10381000890AF0EE000A20EE200A10EE101A08467F
:1038200001F0F8FE41EC1D0BB0EE4C1AF0EE6C1AF4
:10383000B0EE4D0AF0EE6D0AFEF79EF9B0EE40BA1A
:10384000F0EE60BA9FED0A0B53EC102B51EC1B0B02
:1038500001F020FC41EC1A0B01F0D2F9306001E0DC
:10386000022020E700201EE7000000000000804E3C
:103870006666666666A64C4070B50024FDF75CF887
:1038800000F02AF9002840D1782000F035FFC4B2BA
:103890000CB1012070BD7820FFF7AAFEC4B20CB1B4
:1038A0000220F7E7642000F0D9FEC4B20CB1032077
:1038B000F0E7FEF7A9FDC4B20CB10420EAE7144812
:1038C000FFF75EFD0546FEF7F9FFC4B20CB1052017
:1038D000E0E740F27310FEF73FFCC4B20CB10620E3
:1038E000D8E76420FEF71AFFC4B20CB10720D1E775
:1038F00000F0AAFF04460CB10820CBE7012000F03D
:10390000A9FDC4B20CB10920C4E70020C2E7000041
:103910004800002001461148407A30B1012807D004
:10392000022808D003280CD108E0022008700BE020
:103930000420087008E00820087005E010200870D6
:1039400002E04FF0FF30704700BF0448C07C18B160
:1039500008784006000E08700020F4E71C000020E4
:1039600001461348407A30B1012808D002280AD015
:10397000032810D10BE04FF4804008800EE041F6A0
:103980009C7008800AE04FF48050088006E04FF4F5
:103990000060088002E04FF0FF30704700BF04482D
:1039A000C07C10B10888401008800020F5E70000B6
:1039B0001C00002001460248007C0870002070476F
:1039C0001C00002001460F48007A30B1012807D0C2
:1039D000022809D003280FD10AE0FA2008800EE05F
:1039E0004FF4FA7008800AE04FF47A70088006E01D
:1039F0004FF4FA60088002E00020088000BF00BF9A
:103A0000002070471C00002001461248007A30B1A7
:103A1000012809D002280CD0032814D10EE09FED14
:103A20000E0A81ED000A11E09FED0C0A81ED000AFB
:103A30000CE09FED0B0A81ED000A07E09FED090AFB
:103A400081ED000A02E04FF0FF30704700BF002018
:103A5000FBE700001C00002000000343000083423D
:103A6000333303423333834101461248C07A082876
:103A700017D2DFE800F01704070A0D101318BC2056
:103A8000088013E06220088010E02A2008800DE002
:103A9000142008800AE00A20088007E0052008803A
:103AA00004E000BF00BF0020088000BF00BF00206E
:103AB000704700001C0000200146064890F82400D2
:103AC00010B14FF0FF3070470248C08908800020D5
:103AD000F9E700001C0000201CB580208DF80000D4
:103AE000654A1268917C644A526810786B460122DC
:103AF000FDF720FA10B14FF0FF301CBD6420FEF737
:103B0000A5FA00208DF800005B4A1268917C5A4AA1
:103B1000526810786B460122FDF70CFA10B14FF095
:103B2000FF30EAE7544A1268917D534A5268107890
:103B30006B460622FDF758F910B14FF0FF30DCE775
:103B40009DF80500C007400F9DF8031001F001012A
:103B500040EA41009DF8011001F0010140EA010432
:103B600094B1012C03D101214348C17431E0022CEE
:103B700003D100214048C1742BE021463FA0FCF74F
:103B80009DFB4FF0FF30B8E73B4A1268D1783A4AC4
:103B9000526810786B460122FDF726F910B14FF0FC
:103BA000FF30AAE79DF8000000F00F042CB93D4853
:103BB000FCF784FB4FF0FF309FE7042C06D13AA0BE
:103BC000FCF77CFB01212C48C17402E000212A484B
:103BD000C174FF2128488172FF2027490872FF2104
:103BE00025484172C1724FF6FF71C181FF210174F6
:103BF00081740121017380F82210002180F82310C4
:103C0000417501751630016041608160163880F899
:103C1000241080F82510C1844FF4FA6000F062FC93
:103C200010B14FF0FF3068E7022000F02BFB10B11D
:103C30004FF0FF3061E72A2000F0CEFC10B14FF0CA
:103C4000FF305AE7322000F009FD10B14FF0FF308D
:103C500053E70020FFF7CCFC10B14FF0FF304CE7EA
:103C6000002000F051FB10B14FF0FF3045E700207D
:103C700000F042FD002040E71C000020556E7375E7
:103C800070706F7274656420736F667477617265AB
:103C90002070726F64756374207265762025642EBF
:103CA0000A0000005864000848616C662073656E65
:103CB0007369746976697479207061727420666FB3
:103CC000756E642E0A0000002DE9F04385B00546AC
:103CD0000E4690469946294890F8250020B14FF0AD
:103CE000FF3005B0BDE8F08316B94FF0FF30F8E7BC
:103CF000002423E0281B102801DD102000E0281BF1
:103D000087B232193946204600F05EFD10B14FF0FF
:103D1000FF30E6E701AA3946204600F001F910B16C
:103D20004FF0FF30DDE730193A4601A9FCF7AAFB56
:103D300010B16FF00100D4E7E01984B2AC42D9DBD6
:103D40004FEA28208DF8000008F0FF008DF80100F0
:103D50000A4A1268917E094A526810786B4602221C
:103D6000FDF7E8F810B14FF0FF30BAE70121034842
:103D700080F82510A0F826900020B2E71C00002053
:103D800038B50446282C02DD4FF0FF3038BDDCB9D1
:103D9000002000F0EBFB00208DF8000007208DF8DC
:103DA00001002E4A1268917C2C4A526810786B46AA
:103DB0000222FDF7BFF810B14FF0FF30E6E7002117
:103DC000264801750020E1E7012000F0CFFB20200C
:103DD0008DF80000012C06D100208DF8010005208F
:103DE00000F0FAFB17E0052C06DC01208DF801003D
:103DF000052000F0F1FB0EE0142C06DC02208DF80B
:103E000001000A2000F0E8FB05E003208DF8010026
:103E1000142000F0E1FB9DF80100072101EB801068
:103E2000C0B28DF801000D4A1268917C0B4A5268AD
:103E300010786B460222FDF77DF810B14FF0FF308D
:103E4000A4E7082105488172002101730121017551
:103E50000020FFF7CDFB002098E700001C000020A9
:103E6000F8B504460F4616462C4890F8240010B9C1
:103E70004FF0FF30F8BD2948807A10B94FF0FF307D
:103E8000F8E7264A1268917A244A526810786B46FD
:103E90000222FCF7A9FF10B14FF0FF30EAE79DF8CE
:103EA00001009DF8001040EA0125A54203DA002038
:103EB0003070401EDEE7194840684088B5EB600F5F
:103EC00017DD164A1268517C144A526810786B4606
:103ED0000122FCF789FF10B14FF0FF30CAE79DF8CF
:103EE000000000F0100020B100F05AF86FF001005F
:103EF000C0E7E2B2094B1B68D97A084B5B681878B7
:103F00003B46FCF771FF10B14FF0FF30B2E795FB75
:103F1000F4F0401E30700020ACE700001C000020D0
:103F2000F8B504460D46164616B94FF0FF30F8BDF9
:103F30001A48807A10B94FF0FF30F8E720128DF858
:103F40000000E0B28DF801009DF8010028441349FB
:103F500049684989884202DD4FF0FF30E7E70F4AA0
:103F60001268117E0D4A526810786B460222FCF7E7
:103F7000E1FF10B14FF0FF30D9E7EAB2074B1B6801
:103F8000597D064B5B6818783346FCF72DFF10B15E
:103F90004FF0FF30CBE70020C9E700001C000020F5
:103FA00008B57048807A10B94FF0FF3008BD002086
:103FB00000906C4A1268D17B6A4A526810786B464E
:103FC0000122FCF7B7FF10B14FF0FF30EEE7654A72
:103FD00012685179634A526810786B460122FCF7E7
:103FE000A9FF10B14FF0FF30E0E75E4A1268117987
:103FF0005C4A526810786B460122FCF79BFF10B1B7
:104000004FF0FF30D2E7574890F82400002853D0F3
:104010000C200090534A12681179524A5268107865
:104020006B460122FCF786FF10B14FF0FF30BDE771
:104030003220FEF70BF8C02000904A48807A00F04A
:10404000010020B19DF8000040F020000090454A9A
:1040500012681179434A526810786B460122FCF7C6
:1040600069FF10B14FF0FF30A0E73E48407C10B12F
:104070000220009001E0002000903A4A1268D17BB3
:10408000384A526810786B460122FCF753FF10B192
:104090004FF0FF308AE700200090324A12685179D1
:1040A000304A526810786B460122FCF743FF002823
:1040B00055D04FF0FF3079E704200090294A12686C
:1040C0001179284A526810786B460122FCF732FFBA
:1040D00010B14FF0FF3069E72248807C20B92148B9
:1040E000807A00F0010010B94020009001E06020CB
:1040F00000901C4A126811791A4A526810786B466F
:104100000122FCF717FF10B14FF0FF304EE73220CD
:10411000FDF79CFF1348407C10B10120009001E0A6
:10412000002000900F4A1268D17B0E4A5268107826
:104130006B460122FCF7FEFE10B14FF0FF3035E771
:10414000084A12685179074A52681078054B1033B3
:104150000122FCF7EFFE10B14FF0FF3026E7002000
:1041600024E700001C0000202DE9F04F8DB08346AD
:104170000F4602200C90424890F8240020B1002005
:1041800000F068F9012600E0002603A8FFF71AFCFA
:1041900005A8FFF7BFFB01A8FFF766FC02A8FFF721
:1041A0008BFC374890F80AA004A8FFF703FC002412
:1041B00007E0002239465846FEF71CFE00B902E02F
:1041C000641C022CF5DB00BF022C01D1002528E085
:1041D000002407E0012206A909A8FEF70BFE00B99A
:1041E00002E0641C022CF5DB00BF022C01D100258B
:1041F00017E006A93846FDF771FE00F0FF0809A98F
:104200005846FFF72FF800F0FF090025B9F1000F1D
:1042100001D145F00105B8F1000F01D145F00205CB
:1042200000BFFF2016490872FF2115484172C17274
:104230004FF6FF71C181FF21817201740121017369
:10424000BDF80C0000F04EF99DF8140000F01AF8CB
:10425000BDF8040000F0C0F9BDF8080000F0FEF958
:10426000504600F049FA9DF81000FFF7C1F916B169
:10427000012000F0EFF828460DB0BDE8F08F0000F7
:104280001C00002038B504461E48807A10B94FF053
:10429000FF3038BD022C06D0042C07D0082C08D0E3
:1042A000102C0CD108E0002000900BE008200090BA
:1042B00008E01020009005E01820009002E04FF088
:1042C000FF30E6E700BF0F48407A9DF80010B0EBE2
:1042D000E10F01D10020DCE70A4A1268D179094ACE
:1042E000526810786B460122FCF724FE10B14FF0A3
:1042F000FF30CEE79DF80000C11002484172002057
:10430000C7E700001C00002038B504465048807CF8
:10431000A04201D1002038BD002C46D04C4A126882
:1043200011794B4A526810786B460122FCF75CFD0C
:1043300010B14FF0FF30EEE79DF8000020F02000B4
:104340000090434A12681179414A526810786B46CE
:104350000122FCF7EFFD10B14FF0FF30DBE7032047
:10436000FDF774FE02200090394890F8220020B139
:104370009DF8000040F080000090354890F8230040
:1043800020B19DF8000040F030000090304A1268E3
:10439000117D2F4A526810786B460122FCF7CAFD46
:1043A000002851D04FF0FF30B5E7294A1268117943
:1043B000274A526810786B460122FCF715FD10B1B0
:1043C0004FF0FF30A7E72248807A00F0010028B1C3
:1043D0009DF8000040F02000009004E09DF80000EF
:1043E00020F0200000901A4A12681179184A526889
:1043F00010786B460122FCF79DFD10B14FF0FF30A5
:1044000089E70320FDF722FE114890F8220010B141
:104410008020009001E0002000900D4890F82300DB
:1044200020B19DF8000040F030000090084A12686A
:10443000117D074A526810786B460122FCF77AFD1D
:1044400010B14FF0FF3066E701488474002062E746
:104450001C00002038B50446214890F82400A042F2
:1044600001D1002038BD24B31D4890F8250010B9B3
:104470004FF0FF30F6E7002000F034FA0020FFF79D
:1044800043FF1749C88C00F0E9F800200090144958
:10449000496808786B4601222321FCF74BFD012176
:1044A0000F4880F82410012000F01CFAFFF778FD77
:1044B00013E0002000F016FA0948007C009008493B
:1044C000496808786B4601222321FCF733FD00215F
:1044D000034880F82410FFF763FD0020C2E70000C6
:1044E0001C00002038B504461F48807A10B94FF0F0
:1044F000FF3038BDFA2C09D0B4F5FA7F09D0B4F5F5
:104500007A7F09D0B4F5FA6F0CD108E00020009052
:104510000BE00820009008E01020009005E0182033
:10452000009002E04FF0FF30E3E700BF0E48007A52
:104530009DF80010B0EBE10F01D10020D9E70A4A45
:1045400012689179084A526810786B460122FCF78C
:10455000F1FC10B14FF0FF30CBE79DF80000C01028
:10456000014908720020C4E71C00002038B5044649
:10457000184890F82300A04201D1002038BD14B1A2
:104580003020009001E0002000901248807C20B193
:104590009DF8000040F0020000900E4890F82200C4
:1045A00020B19DF8000040F080000090094A126898
:1045B000117D084A526810786B460122FCF7BAFC5C
:1045C00010B14FF0FF30D9E7024880F823400020B7
:1045D000D4E700001C00002038B504461E48807A4D
:1045E00010B94FF0FF3038BDBC2C02DB0120009029
:1045F00015E0622C02DB0220009010E02A2C02DB86
:10460000032000900BE0142C02DB0420009006E055
:104610000A2C02DB0520009001E0062000900E48E5
:10462000C07A9DF80010884201D10020DBE70A4AD9
:1046300012689178084A526810786B460122FCF79C
:1046400079FC10B14FF0FF30CDE79DF80010024823
:10465000C1720020C7E700001C00002038B50446E6
:104660002448807A10B94FF0FF3038BD214890F8C7
:10467000240010B14FF0FF30F7E71E48007D50B125
:1046800034B1282C04DCE0B2FFF77AFB0020ECE721
:104690000020FFF775FB042C01DA042404E0B4F5D4
:1046A0007A7F01DD4FF47A744FF47A7090FBF4F066
:1046B000401EC0B200900F4A126851780D4A5268ED
:1046C00010786B460122FCF735FC10B14FF0FF303B
:1046D000CBE79DF80000401C4FF47A7191FBF0F09D
:1046E00081B20448C1810146C9894810FFF774FFAF
:1046F0000020BAE71C00002038B5044604F0700022
:1047000010B10120009005E014B10020009001E0FC
:10471000402000902B4A1268917C2A4A52681078F7
:104720006B460122FCF706FC20B10021254881726E
:10473000481E38BD9DF8000020F04001214801735B
:104740000020009004F0400020B99DF8000040F0E7
:104750000400009004F0200020B99DF8000040F013
:104760000200009004F0100020B99DF8000040F015
:104770000100009004F0080020B99DF8000040F00E
:10478000380000900F4A1268D17C0E4A52681078A7
:104790006B460122FCF7CEFB20B100210948817253
:1047A000481EC6E724B1082C02D00020FFF7DEFE29
:1047B00004488472002101753220FDF747FC002077
:1047C000B7E700001C000020F8B504460D46164669
:1047D00016B94FF0FF30F8BD1A48807A10B94FF083
:1047E000FF30F8E720128DF80000E0B28DF80100EC
:1047F0009DF801002844134949684989884202DD2F
:104800004FF0FF30E7E70F4A1268117E0D4A5268F9
:1048100010786B460222FCF78DFB10B14FF0FF3091
:10482000D9E7EAB2074B1B68597D064B5B681878DD
:104830003346FCF77FFB10B14FF0FF30CBE7002091
:10484000C9E700001C00002010B588B002A905A827
:10485000FFF78AFC0446032C41D101A8FFF7D4F8E6
:104860009DED050AB8EEC00ADDED010A20EE200A32
:10487000BDEEC00A8DED050A9DED060AB8EEC00A30
:10488000DDED010A20EE200ABDEEC00A8DED060A1C
:104890009DED070AB8EEC00ADDED010A20EE200A00
:1048A000BDEEC00A8DED070A05A8FDF76FFF68464B
:1048B000FFF756F8BDF80010029848430290BDF883
:1048C0000010039848430390BDF800100498484333
:1048D000049002A8FDF78AFE002008B010BD012058
:1048E000FBE7000038B50446214890F82400C0B129
:1048F00014B10220009001E0002000901C4A1268D0
:10490000D17B1B4A526810786B460122FCF712FBE0
:1049100010B14FF0FF3038BD9DF8001014484174BD
:1049200023E01348807A10B94FF0FF30F3E724B149
:104930000F48407C08B10020EDE714B10120009041
:1049400001E0002000900A4A1268D17B084A5268B0
:1049500010786B460122FCF7EDFA10B14FF0FF30F2
:10496000D9E79DF80010024841740020D3E7000009
:104970001C00002000B52DED048B83B041EC190B19
:1049800000F092FC41EC180B18EE100A18EE901A89
:104990008DED008B002818BF0120084320F0004057
:1049A000C0F17F6000F1E040C00F14D019EE101A82
:1049B00019EE900A8DED009B002918BF01210843D4
:1049C00020F00040C0F17F6000F1E040C00F04BF64
:1049D0000120FBF70BFE51EC180B03B0BDEC048B70
:1049E00000BD000010B588B0044601210846FCF760
:1049F0001BFB01211020FCF727FB0722092122487D
:104A0000FBF74AFF07220A211F48FBF745FF4FF437
:104A1000C060069002208DF81C008DF81D0000205B
:104A20008DF81E0001208DF81F0006A91648FBF71F
:104A3000EBFE02940020ADF80C00ADF80E00ADF8CE
:104A40001000ADF814000C20ADF8120002A90F48B8
:104A5000FCF7E8FC01210D48FCF77CFC012240F248
:104A600025510A48FCF7B9FC25208DF804000320E5
:104A70008DF805008DF8060001208DF8070001A8CB
:104A8000FCF78CFA08B010BD000002400010014095
:104A9000F0B589B006460F4615461C2D01DD09B05C
:104AA000F0BD002101AAE81C115488208DF80400F3
:104AB0008DF805608DF80650002405E0395DE01C96
:104AC00001AA1154601CC4B2AC42F7DB00240AE016
:104AD00001A9E81C085C095D0844C1B201AAE81CF0
:104AE0001154601CC4B2E81C8442F1DB002405E0D0
:104AF00001A9085D00F068F8601CC4B2281D84425A
:104B0000F6DB00BFCBE72DE9F04F87B004460D463A
:104B100016461F46DDE911ABDDF840904FF0000866
:104B200006E000200DF8080008F1010000F0FF0881
:104B3000B8F11C0FF5DB200A8DF80000E0B28DF80B
:104B40000100280A8DF80200E8B28DF80300300A4F
:104B50008DF80400F0B28DF80500380A8DF80600D3
:104B6000F8B28DF807004FEA19208DF8080009F017
:104B7000FF008DF809004FEA1A208DF80A000AF0AC
:104B8000FF008DF80B004FEA1B208DF812000BF090
:104B9000FF008DF813001398000A8DF81400139885
:104BA000C0B28DF815001498000A8DF816001498FC
:104BB000C0B28DF817001C226946AF20FFF768FFCE
:104BC00007B0BDE8F08F000010B5044600BF4021DB
:104BD0000448FCF7CBFB0028F9D021460148FCF73C
:104BE00090FC10BD0010014081F00041704780F042
:104BF0000040704721F00041704720F000407047AE
:104C000021F00042A2F16052B2F5801F01F0004392
:104C100028BFD2F17F6C0BD95FEA001C43EAC202C5
:104C200042EB507018BF704728BF20F0010070475A
:104C3000B2F5801FBCBF184670474FEA410C1CF507
:104C4000001F02D2084600F05BBD70B500F0CCFA40
:104C500000000089FFF7F6BF4FF00040A0F580008C
:104C60007047000010B591EA030F48BF83F000437E
:104C700000F1EE83841A71EB030C05D2121943EB99
:104C80000C03001B61EB0C01DFF824E14FEA115427
:104C9000A4EB135C1EEA430F18BF9EEA445F73D077
:104CA00023EA0E03DCF1200E21EA045143F48013C1
:104CB00032D322FA0CFE10EB0E0023FA0CFE41EB6D
:104CC0000E01CCF1200E03FA0EFE10EB0E0051F196
:104CD0000001B1F5801FCCF1200E32D201EB04515E
:104CE00012FA0EF2BDE8104058BF7047401C38BFA2
:104CF0005FEA420218BF7047002814BF20F001008D
:104D000041F100014FEA410313F5001F38BF70471E
:104D1000A1F1C04100F0B6BA012A43EB0302ACF1A5
:104D2000200CDCF11F0E32BF4FF0000E23FA0CF303
:104D300010EB030041EB0451B4EB115FD0D0A1EBB9
:104D4000045101F5801149085FEA300001EB04517C
:104D50000ED350F1000038BF12FA0EFE08D1BDE8A4
:104D60001040C9E7401C38BF5FEA4202CAD1C3E71E
:104D7000BDE810404FEA410313F5001F38BF7047EC
:104D8000A1F1C04100F07EBA9EEA445F08D011EA6A
:104D90005E0FBDE8104004BF01F0004100207047E5
:104DA000BDE8104070B500F01FFA00BF64FBBE3EC6
:104DB0000000E0FF2DE9C04130B4DFF8A0C23CEABA
:104DC000111418BF3CEA131400F0EC8081EA0305CB
:104DD0001CEA111444EAD57418BF1CEA131500F03C
:104DE000C780A4EB05044FF0004545EAC12145EA20
:104DF000C32341EA505143EA525304F17F7499426C
:104E000004F500344FEAC0204FEAC22208BF9042A6
:104E100000F09C804FEA13650FF24016765D4FEA72
:104E2000134506FB05F7C7F1807706FB07F74FEA46
:104E3000D737A7FB03687642C8F58038A7FB06CEB4
:104E400038BFA8F1010807FB08E64FF0000EA6FBEB
:104E5000028CE6FB03CEDCF1000CCEF1004E38BF35
:104E6000AEF1010EA6FB0C584FF000074FF0000505
:104E7000E6FB0E87A1FB08C6A0FB07CE16EB0E06CD
:104E800045F10005E1FB076515F1E04E7EBFA4F595
:104E900080345FEA46066D4116F1800745F1000552
:104EA0004FEA17274FEA066647EA0567A6F1DE468E
:104EB000B6F1805F4FEA15251FD9384624F0010C62
:104EC00005EBC471BCF1FE6F01EB0C1102D8F0BC14
:104ED000BDE8008124425CBF01F5801E9EEAC47FCC
:104EE00002D4F0BCBDE80081244238D4F0BCA1F16A
:104EF000C041BDE8004100F0C5B94FEAD22242EA04
:104F000043524FEAD323A7FB02864FEAD02040EA60
:104F1000415007FB03661EEA0E0F4FEAD12105FB45
:104F2000026658BFA6EB0056B6EB00564FEA520E8B
:104F30004EEAC37E18EB0E0E56EB530EBDD518EBA2
:104F400002085E417F1C55F10005B6E74FF480155D
:104F50004FF000074FF000064FF00008ADE7F0BC3F
:104F60004FF0000001F1C04101F00041BDE80081B7
:104F700011EA0C1F0CEA131500D00CE013EA0C1F09
:104F800000F025804FF00000F0BC81EA030101F041
:104F90000041BDE80081F0BCBDE8004181EA0301A9
:104FA00000F070B9F0BCBDE8004170B500F01CF92C
:104FB000097EFC3E00F007B881EA03014FF00000D3
:104FC00001F00041704781EA030100F05BB9F0BCD9
:104FD000BDE800414FF0000021497047FFFDFBF99B
:104FE000F7F5F4F2F0EEEDEBE9E8E6E4E3E1E0DE1C
:104FF000DDDBDAD8D7D5D4D3D1D0CFCDCCCBCAC88E
:10500000C7C6C5C4C2C1C0BFBEBDBCBBBAB9B8B7B4
:10501000B6B5B4B3B2B1B0AFAEADACABAAA9A8A8A7
:10502000A7A6A5A4A3A3A2A1A09F9F9E9D9C9C9B75
:105030009A99999897979695959493939291919020
:105040008F8F8E8E8D8C8C8B8B8A898988888787B1
:105050008685858484838382828181800000FF0726
:105060000000F87F10F0004248BF4042B0FA80F3E1
:1050700010FA03F10AD0C3F11D0303F580634FEA70
:10508000415002EB035202EBD12170474FF0000078
:1050900070470000DFF848C170B51CEA111E1EBF42
:1050A0001CEA13159EEA0C0F95EA0C0F00F06F80B6
:1050B00081EA030423EA4C134EEAD47E21EA4C1120
:1050C00041F4801143F48013AE44A1FB024CA0FBD9
:1050D0000365AEF17F7E361955EB0C05A1FB034C41
:1050E0004CF10003A0FB021C16EB0C06654153F1CA
:1050F0000003094218BF46F0010613F4007F0BD1EC
:105100004FEA03314FEA0530340341EA155140EAD2
:1051100016506FF003020AE04FEAC3214FEAC520A0
:10512000F40241EA555140EA56506FF0020202EB98
:105130002E4201EB025585EACE710AD05FEA440C9B
:1051400018BF24F0004450F1000041F1000120EAB2
:10515000D47040F2FE7C624500D270BDA84214BFFC
:105160004FF080444FF04044002E08BF0024BEF1B1
:10517000806FA8BFA1F1C041BDE8704080F282807D
:105180004FF0000001F1C04101F0004170479EEA7C
:105190000C0F0CEA131518BF95EA0C0F06D04FF050
:1051A000000081EA030E0EF0004170BD00F01CF813
:1051B0008900013E00F007B800F009B84FEA430C3F
:1051C0005FEA5C5C08D081EA030100F05BB84FEA5B
:1051D000410C5FEA5C5CF6D14FF00000014970477A
:1051E0000000FF070000F87F0EF1020E2EF0030E04
:1051F0005EF8046B364205D4012A43EB030515F52E
:10520000001F12D8012841EB010C1CF5001F0CD81F
:105210000ED14FEAD17C15F5001F0CEB4C0C0CF1B4
:10522000020C08BF4CEBD37C04E04FF0080C01E00B
:105230004FEAD37C0CEB4C0526FA05F606F0070680
:10524000B6F1040C06D20EEB860CBDE870404CF0B3
:10525000010C6047DFE80CF0090B02024FF000413F
:105260004FF00000A1F5002170BD1946104601283D
:1052700051EB010418BFD4F5001484BF002001F0E5
:10528000004170BD0808A0F500114FEA31017047D8
:1052900091EA030F10B581F000413FF5EBAC83F0CC
:1052A000004300F0D5B800002DE9F04101F5801C65
:1052B000BCF5001FC0F2A9804FEA115C21EA0C5135
:1052C0000CF1FD0C41F480115FEA5C0C0CF5C07C24
:1052D00001D34000494130A4890241EA905187023C
:1052E0008E0E0A0CA45D04FB04F602FB06F6C6F162
:1052F0004046A4FB0662F60D46EA422606FB06F48B
:10530000A4FB01235242C3F1404338BF5B1EA6FBFE
:1053100002420024E6FB0324D20B42EA4446A6FBE9
:105320000623A1FB02E2A3FB07E4E3FB6142644224
:10533000C2F1404E38BFAEF1010EA6FB04234FF080
:105340000002E6FB0E32A2FB03463400E2FB62647D
:10535000A1FB06E6A4FB07E8E4FB61687642C8F11E
:10536000405838BFA8F10108A2FB06E4A3FB08E5FA
:10537000E2FB6854A1FB05E6A7FB04E8E1FB6486B9
:1053800018F1200556F10006A809A8F11B08B1097B
:1053900008F03F08B8F10A0F40EA86601CD901EB1B
:1053A0000C51BDE8F08100BFFCF5EEE8E2DDD8D39A
:1053B000CFCBC7C3C0BDB9B6B4B1AEACA9A7A5A386
:1053C000A19F9D9B9A9896959392908F8D8C8B8997
:1053D0008887868584838281A0FB006800FB01F2B8
:1053E00008EB4208B8EB872807D5341858EB0104BE
:1053F000D5D5401C51F10001D1E7341A78EB0104F6
:10540000CDD4401E71F10001C9E75FEA4C0C5FEAA0
:105410009C5C0DD105D34FF0000001F00041BDE8C8
:10542000F081BDE8F04170B5FFF7DEFE6DDBFFBE39
:10543000BDE8F0414FF00000004970470000F87FE0
:1054400010B591EA030F48BF83F000433FF512AC5B
:10545000841A71EB030C07D212198CF0004C43EB49
:105460000C03001B61EB0C01DFF8A4E14FEA1154BF
:10547000A4EB135C1EEA430F18BF9EEA445F00F0E2
:10548000B08023EA6E03524221EA0451C3EB6E035B
:1054900038BF5B1EDCF1200E25D322FA0CFE10EB88
:1054A0000E0043FA0CFE41EB0E01CCF1200E03FA84
:1054B0000EFE10EB0E0051F10001CCF1200E29D4AC
:1054C00012FA0EF201EB0451BDE8104058BF7047CC
:1054D000401C1CBFB2F1004F704700280CBF491C94
:1054E00020F00100704712EB020E43EB030218BFDD
:1054F0004FF0010E4EEA4202ACF1200CDCF11E0E20
:1055000054D943FA0CFE10EB0E0051F1FF31CCF1EF
:105510001E0ED5D50EF1010E12FA0EFE404141EBE2
:10552000010101EB445C5FEA5C5C10D910EBDE70BA
:1055300001EB045138BFBEF1004FBDE8104018BF69
:10554000704700280CBF491C20F00100704730D282
:105550004FEAD42C11F5001124F400641BD0B1FAE9
:1055600081F20B3AA41AA41ED2F12003914030FA22
:1055700003F31943904001EBCC71002C01EB045173
:10558000BDE81040A8BF704701F1C0414FF00000D6
:1055900001F000417047B0FA80F310FA03F100D136
:1055A00010BDE41A173C4805C90AE4E701EB0451B1
:1055B00010BD491001EB0451BDE810404FEA300026
:1055C00002E04FF0000170474A0008BF0042F8D0E7
:1055D000B2F5001F28BF704701F000414FF00000F6
:1055E00070479EEA445F07D011EA5E0FBDE81040A5
:1055F00004BF002100207047BDE8104070B5FFF7E0
:10560000F3FD00BF40DFF63E83F0004110467047D7
:105610000000E0FF43004FEAD30C4FEA3C0C43404C
:105620001FBF40070CF1605113F0FE4F70471CF094
:10563000006F03D100200CF0004170470CF00043D4
:1056400043EA507010B540EACC0000F00EF800BFFD
:10565000000000924FEA0001FFF714BE4FF0004136
:105660004FF00000A1F5002170470EF1020E2EF060
:10567000030E5EF8044B244204D44FEA4102B2F117
:105680007F4F11D84FEA4003B3F17F4F0CD80ED1B2
:105690004FEAD07CB2F17F4F0CEB4C0C0CF1020CBA
:1056A00008BF4CEBD17C04E04FF0080C01E04FEA5E
:1056B000D17C0CEB4C0324FA03F404F00704B4F19E
:1056C000040C06D20EEB840CBDE810404CF0010C2B
:1056D0006047DFE80CF0070802024FF00040A0F539
:1056E000800010BD0846420018BFD2F1807288BF0A
:1056F00000F0004010BD4FF04070E1EE100A70471E
:10570000FF2141EAD050C0057047000075191A0CFE
:105710006A231B1C1F207274433B4138393A6B6C5F
:10572000376F06246D6E7000680000047600540127
:10573000F7FD0001830000000008000000010018D0
:1057400032000500000020410000D242295C0F3EDB
:105750009A99993E3333733F295C0F3E00007000E5
:105760000000002400000002000300000065005457
:10577000FFEF0000FA80000B12820001030C30C31F
:105780000E8C8CE914D5400213710F8E3883F88388
:105790003000F883258EF8833000F883FFFFFFFF89
:1057A0000FFEA9D6240004001A8279A10000003C53
:1057B000FFFF00000010000038836FA2003E03309E
:1057C0004000000002CAE3093E8000002000000003
:1057D000000000004000000060000000000C00001D
:1057E000000C186E000006920A16C0DFFFFF02567A
:1057F000FD8CD377FFE1C496E0C5BEAA000000008F
:10580000FFFF0B2B0000165700000359400000005B
:1058100000001DFA00026C1D000000003FFFDFEBDE
:10582000003EB3B6000D227800002F3C00000000BF
:10583000001942B5000039A20000B365D90E9FC916
:105840001DCF4C3430000000500000003BB67AE819
:105850000064000000C8000000000000100000000C
:105860001000FA921000225E000D229F000100003D
:1058700000320000FF46000063D40000100000006A
:1058800004D6000004CC000004CC0000000010721C
:1058900000000040000000000000000000060002C0
:1058A0000005000700000000006400000000000088
:1058B000000000050005006400200000000000005A
:1058C0000000000000004000000003000000003263
:1058D000F8980000FF650000830F0000FF9BFC00AC
:1058E00000000000000000000000000000000000B8
:1058F00000000000000000000000000000000000A8
:105900000000000000000000000010004000000047
:10591000000000060000B26A000200000001FB83E4
:105920000068000000D9FC007CF1FF83000000004B
:1059300000650000006403E8006400280000002502
:105940000000000016A00000000010000000100081
:10595000002F0000000001F40000100000280000EB
:10596000FFFF4581FFFFFA72000000000000000009
:10597000004400050005BAC6004778A200000001F7
:105980000000000000000600000000140000254D8B
:10599000002F706D000005AE000C02D0000000006A
:1059A000000000000000000000000000001B0000DC
:1059B0000000000000000000000000000064000083
:1059C00000080000000000000000000000000000CF
:1059D00000000000000000000000000000000000C7
:1059E00000000000000000000000000000000000B7
:1059F00000000000000000000000000000000000A7
:105A00000000000000000000000000000000000096
:105A1000000000000000000000000000001B00006B
:105A20000000000000000000000E000E00000AC789
:105A30000004000000000032FFFFFF9C00000B2B61
:105A4000000000020000000100000064FFE500000B
:105A50000000000000000000000000000000000145
:105A600000000000000100000000000000018000B4
:105A70000001800000018000002426D30000000007
:105A800000000000000600100096003C000000002E
:105A90000000000000000000000000000C0A4E683A
:105AA000CDCF770950166759C619CE820000000085
:105AB00000000000000000000000000000000000E6
:105AC0000000000017D78400030000000000000061
:105AD00000000000C7938F9D1E1B1C1900000000D2
