:020000040800F2
:10000000C006002029020008850B00087D0B0008AF
:10001000810B0008ED040008E71000080000000054
:100020000000000000000000000000003B0200088B
:100030009D0A0008000000003F020008410200087D
:10004000430200084302000843020008430200087C
:10005000430200084302000843020008430200086C
:10006000430200084302000843020008430200085C
:10007000430200084302000843020008430200084C
:10008000430200084302000843020008430200083C
:10009000F10400084302000843020008430200087C
:1000A000430200084302000843020008430200081C
:1000B000430200084302000843020008430200080C
:1000C00043020008430200084302000843020008FC
:1000D00043020008D90E000843020008430200084A
:1000E00043020008430200084302000843020008DC
:1000F00043020008430200084302000843020008CC
:1001000043020008430200084302000843020008BB
:1001100043020008430200084302000843020008AB
:10012000430200084302000843020008430200089B
:10013000430200084302000843020008430200088B
:10014000A10500084302000843020008430200081A
:10015000430200084302000843020008430200086B
:10016000430200084302000843020008430200085B
:10017000430200084302000843020008430200084B
:10018000430200084302000800F002F800F03CF8C7
:100190000AA090E8000C82448344AAF10107DA45E2
:1001A00001D100F031F8AFF2090EBAE80F0013F0F8
:1001B000010F18BFFB1A43F0010318475410000049
:1001C00074100000103A24BF78C878C1FAD85207DA
:1001D00024BF30C830C144BF04680C6070470000C1
:1001E0000023002400250026103A28BF78C1FBD840
:1001F000520728BF30C148BF0B6070471FB501F0E0
:1002000001F81FBD10B510BD00F031F81146FFF721
:10021000F5FF00F089FF00F04FF803B4FFF7F2FF9D
:1002200003BC00F057F80000094880470948004720
:10023000FEE7FEE7FEE7FEE7FEE7FEE7FEE7FEE796
:10024000FEE7FEE704480549054A064B70470000F3
:10025000710E000889010008C0000020C0060020BF
:10026000C0020020C00200207047704770477546EA
:1002700000F02CF8AE4605006946534620F0070012
:10028000854618B020B5FFF7DDFFBDE820404FF0F0
:1002900000064FF000074FF000084FF0000B21F070
:1002A0000701AC46ACE8C009ACE8C009ACE8C0093D
:1002B000ACE8C0098D46704710B50446AFF3008026
:1002C0002046BDE81040FFF7A8BF00000048704777
:1002D0005C00002001491820ABBEFEE726000200AA
:1002E000704700002DE9F0418AB004460D461646DD
:1002F0001F46DDF840800121084600F08BFC0121FB
:10030000480600F097FC02208DF8240000208DF8AC
:1003100026004FF4C050089001208DF827000320DC
:100320008DF8250008A9304800F0B9FB09220B21FF
:100330002D4800F0FCFB09220C212B4800F0F7FBB4
:1003400001208DF81B0000208DF81C008DF818602E
:100350008DF819508DF8168001208DF81D00ADF82C
:10036000147000208DF81E008DF817408DF81A00CB
:100370008DF81F0005A91D4800F0ABF901208DF88C
:1003800011000020ADF80C0044F22000ADF804008C
:100390000020ADF806004FF6E070ADF8080002202E
:1003A000ADF80A0000208DF80F008DF80E00012036
:1003B0008DF8100001A800F0FFF8012202210B487F
:1003C00000F07EF914208DF8000001208DF8030064
:1003D0008DF8010000208DF80200684600F0D4FB83
:1003E00000200AB0BDE8F081000002400064004037
:1003F0001CB50121042000F00DFC01208DF8040043
:1004000000208DF8060001208DF807004FF4C05041
:10041000009003208DF805006946074800F03FFB77
:100420004FF40061044800F0A7FB4FF480510248EC
:1004300000F0A2FB1CBD00000008024000B587B020
:100440000121102000F006FC0121084600F0E2FB2B
:1004500002208DF818004FF4C060059003208DF83D
:10046000190000208DF81A0001208DF81B0005A945
:100470001C4800F014FB4FF4E13001900020ADF86F
:1004800010000C20ADF80E000020ADF80C00ADF807
:100490000A00ADF8080001A9134800F0B1FD0722D9
:1004A0000921104800F043FB07220A210D4800F003
:1004B0003EFB01210C4800F047FD012240F225518E
:1004C000094800F077FD25208DF8000001208DF807
:1004D00003008DF801008DF80200684600F054FB1F
:1004E00007B000BD000002400010014000BFFEE761
:1004F00010B5034A0021034800F075F910BD000053
:10050000340000200064004002460948807A08B99F
:1005100000207047002104E005480B30405C505437
:10052000491C0348807A8842F6D80148807AF0E76F
:1005300034000020F0B585B007460D4600248DF844
:100540000A5000208DF808008DF809004FF4007063
:10055000009000BF05E0395D0DF10B000155601CF6
:1005600084B2AC42F7DB69460C4800F0B4F90646A9
:10057000002401E0601C84B23146084800F03EFAD5
:1005800018B94FF6FF708442F4DB4FF6FF708442D7
:1005900002DB012005B0F0BD0020FBE70064004055
:1005A00010B5034A0021034800F01DF910BD0000FA
:1005B000480000200068004010B50021837A012225
:1005C00002FA03F13D4A126842F001023B4B1A6005
:1005D0003A4A1C3212688A43384B1C331A60027B39
:1005E000CAB9364A0C3212688A43344B0C331A604B
:1005F0004288C38842EA0343304A4032847A42F850
:1006000034300288838842EA03432C4A4032847A99
:1006100002EBC4025360027B012A19D1274A0C3233
:1006200012680A43254B0C331A604288038842EA59
:100630000343224A4032847A42F83430C2888388A5
:1006400042EA03431D4A4032847A02EBC4025360FB
:10065000C27A3AB9194A121D12688A43174B1B1DF8
:100660001A6006E0154A121D12680A43134B1B1D3F
:100670001A60028932B9114A143212688A430F4B48
:1006800014331A600289012A06D10C4A1432126806
:100690000A430A4B14331A60427B012A06D1074AE7
:1006A0001C3212680A43054B1C331A60034A126855
:1006B00022F00102014B1A6010BD000000660040EC
:1006C0001AB143690B43436102E043698B434361C1
:1006D000704730B5024600200023146824F002045D
:1006E0001460146844F00104146000E05B1C54685A
:1006F00004F001041CB94FF6FF74A342F6D154680C
:1007000004F001040CB900206CE08C79012C04D1B8
:10071000146844F08004146003E0146824F080043A
:100720001460CC79012C04D1146844F040041460A6
:1007300003E0146824F0400414600C7A012C04D106
:10074000146844F02004146003E0146824F02004CA
:1007500014604C7A012C04D1146844F01004146025
:1007600003E0146824F0100414608C7A012C04D186
:10077000146844F00804146003E0146824F00804CA
:100780001460CC7A012C04D1146844F00404146081
:1007900003E0146824F0040414608C78A407CD7876
:1007A00044EA05640D7944EA05444D7944EA055468
:1007B0000D886D1E2C43D461146824F0010414606C
:1007C000002300E05B1C546804F001041CB14FF6E8
:1007D000FF74A342F6D1546804F001040CB1002068
:1007E00000E0012030BD10B500F5D87303EB011314
:1007F0001B6803F004031372137A53B900F5D8731E
:1008000003EB01131B6840F2FF7404EA53531360B7
:1008100009E000F5D87303EB01131B686FF0604427
:1008200004EAD303536000F5D87303EB01131B688C
:1008300003F00203537200F5D87303EB01135B68F6
:1008400003F00F03937200F5D87303EB01135B6899
:100850001B0AD37400F5D87303EB01139B68D372A2
:1008600000F5D87303EB01139B681C0A147300F5A1
:10087000D87303EB01139B681C0C547300F5D873F9
:1008800003EB01139B681B0E937300F5D87303EB06
:100890000113DB68D37300F5D87303EB0113DB6836
:1008A0001C0A147400F5D87303EB0113DB681C0CED
:1008B000547400F5D87303EB0113DB681B0E9374BB
:1008C00021B9C36843F02003C36003E0036943F028
:1008D0002003036110BD10B502460020936803F0A9
:1008E0008063B3F1806F00D110E0936803F0006380
:1008F000B3F1006F01D1012008E0936803F0805349
:10090000B3F1805F01D1022000E00420042874D0FC
:1009100002F5C07303EB00131B6803F0010402F53A
:10092000C07303EB00131C600B7A7BB94B7A0C8805
:1009300043EA445302F5C07404EB001424682343D3
:1009400002F5C07404EB0014236010E00B7A4C68CD
:1009500043EAC4034C7A234302F5C07404EB001449
:100960002468234302F5C07404EB001423608B7ADF
:1009700003F00F038B7202F5C07303EB00135B6887
:1009800023F00F0402F5C07303EB00135C6002F563
:10099000C07303EB00135B688C7A234302F5C074C9
:1009A00004EB001463608B7B1C064B7B44EA03441E
:1009B0000B7B44EA0323CC7A234302F5C07404EB97
:1009C0000014A3608B7C1C064B7C44EA03440B7C24
:1009D00044EA0323CC7B234302F5C07404EB0014E8
:1009E000E36002F5C07303EB00131B6843F00104DE
:1009F00002F5C07303EB00131C6010BD10B5024676
:100A0000002321B1012907D002290FD109E0906804
:100A10001D4C00EA04030BE090681C4C00EA040340
:100A200006E090681A4C00EA040301E0002300BFCE
:100A300000BF184C181BA34216D007DC83B16FF01F
:100A40008060184470B1022818D111E0B0F5007F21
:100A500010D0114C204448B1B0F5003F0ED10BE04E
:100A600002230DE000230BE0002309E0002307E050
:100A7000012305E0012303E0012301E0002300BF7F
:100A800000BFD8B210BD000003000004000300083E
:100A900000000310000100080001FFF77047F0B5E7
:100AA0000A4600210023002400BF3DE0012505FA8D
:100AB00001F3156805EA03049C4234D105684F0030
:100AC0000326BE40B543056015794E00B540066863
:100AD000354305601579012D02D01579022D16D107
:100AE00085684F000326BE40B543856055794E00AA
:100AF000B540866835438560456801268E40B5431C
:100B00004560456896798E40B6B235434560C56804
:100B10004F000326BE40B543C560D5794E00B540B1
:100B2000C6683543C560491C1029BFD3F0BDF0B578
:100B3000002300244D07ED0E02FA05F3CE1000F15C
:100B4000200555F826504E07F70E0F26BE40B54338
:100B5000CF1000F1200646F82750CE1000F12005F6
:100B600055F8265045EA0304CE1000F1200545F85B
:100B70002640F0BD418370470183704700BFFEE708
:100B800000BFFEE77047000070B5002100230F2270
:100B9000C4781CB3174C246804F4E064C4F5E06422
:100BA000C4F30721C1F10404E3B20A4144789C4034
:100BB000E1B28478144021430C07210E0E4C0578D5
:100BC0006155047804F01F050124AC4005786D11CF
:100BD000AD0005F1E025C5F8004109E0047804F016
:100BE0001F050124AC40054D0678761145F82640D6
:100BF00070BD00000CED00E000E400E080E100E0EA
:100C000002490143024A1160704700000000FA05E2
:100C10000CED00E029B1064A12680243044B1A6049
:100C200004E0034A12688243014B1A6070470000D7
:100C30003038024029B1064A12680243044B1A6058
:100C400004E0034A12688243014B1A6070470000B7
:100C50004038024029B1064A12680243044B1A6028
:100C600004E0034A12688243014B1A607047000097
:100C700044380240F0B5002100220024022500265D
:100C80000223324F3F6807F00C0121B1042905D03F
:100C9000082937D105E02E4F076036E02D4F076059
:100CA00033E02A4F3F1F3F68C7F38056274F3F1F4F
:100CB0003F6807F03F036EB1264FB7FBF3F7DFF84D
:100CC0008CC0ACF1040CDCF800C0CCF3881C07FB32
:100CD0000CF40CE01E4FB7FBF3F7DFF870C0ACF17B
:100CE000040CDCF800C0CCF3881C07FB0CF4174F95
:100CF0003F1F3F68C7F301477F1C7D00B4FBF5F73A
:100D0000076002E0124F076000BF00BF0F4F3F684F
:100D100007F0F0010909104F7A5C0768D740476077
:100D20000A4F3F6807F4E051890A0B4F7A5C476825
:100D3000D7408760054F3F6807F46041490B064F75
:100D40007A5C4768D740C760F0BD000008380240B1
:100D50000024F40040787D011F0000200CB5002025
:100D6000019000903448006840F4803032490860B7
:100D700000BF3148006800F4003000900198401C2A
:100D80000190009818B90198B0F5A04FF1D12A4808
:100D9000006800F4003010B10120009001E0002054
:100DA00000900098012846D123484030006840F068
:100DB00080502149403108602048006840F440409C
:100DC0001E4908601C48083000681B49083108604B
:100DD0000846006840F4004008600846006840F497
:100DE000A05008601648091F0860081F006840F0FE
:100DF0008070091F086000BF0F48006800F0007095
:100E00000028F9D040F205700E4908600A48083001
:100E1000006820F0030008490831086008460068AF
:100E200040F00200086000BF03480830006800F08E
:100E30000C000828F8D10CBD0038024000700040BA
:100E400019544007003C0240042808D14FF0E0212B
:100E5000096941F004014FF0E022116107E04FF011
:100E6000E021096921F004014FF0E022116170478F
:100E700010B51548006840F4700013490860134825
:100E8000006840F001001149086000200F49083156
:100E900008600E4800680E4908400C4908600D487B
:100EA000091D0860081F006820F48020091F0860E1
:100EB000002006490C310860FFF750FF4FF000603A
:100EC00001498039086010BD88ED00E0003802401B
:100ED000FFFFF6FE1030002410B540F225511548F2
:100EE00000F03EF828B3134800F0F4F812490870F7
:100EF000084601780F4800F0F2F80F4800780D28F6
:100F000003D00D4800780A2803D100200B4908704F
:100F10000FE00948007830380949084A12788854A7
:100F200006480078401C05490870084600780549C5
:100F3000087010BD00100140020000200B000020CE
:100F4000030000200C00002021B1828942F40052ED
:100F5000828104E082894DF6FF731A4082817047D6
:100F600070B50246002400230025002040F66A16D2
:100F7000B14200D100BFC1F3421501F01F030126A9
:100F800006FA03F3012D02D19689334006E0022DC3
:100F900002D1168A334001E0968A33400C120126B2
:100FA00006FA04F41688344013B10CB1012000E0B5
:100FB000002070BDF0B50346002400260025002067
:100FC00040F66A17B94200D100BF1846C1F3421477
:100FD00001F01F06012707FA06F5012C01D10C309C
:100FE00004E0022C01D1103000E014301AB107687F
:100FF0002F43076002E00768AF430760F0BD0000C1
:101000002DE9FF4705460E460024A14600BFA04635
:10101000B08900B100BF2C8A24F44054F088044306
:101020002C82AC8941F20C608443B088318908433A
:10103000718908430443AC81AC8A24F44074B089BC
:101040000443AC826846FFF715FE2048854202D073
:101050001F48854202D1DDF80C9001E0DDF80890D0
:10106000A88900F4004040B109EBC90000EB091069
:1010700031684900B0FBF1F707E009EBC90000EB6C
:10108000091031688900B0FBF1F76420B7FBF0F07C
:1010900004012009642101FB1078A88900F40040B4
:1010A00040B1322000EBC800B0FBF1F000F00700C7
:1010B000044308E0322000EB08106421B0FBF1F09B
:1010C00000F00F0004432C81BDE8FF8700100140B1
:1010D0000014014001468888C0F308007047C1F33E
:1010E00008028280704700BFFEE7000010B504468A
:1010F0006FF00400FFF7A8FEE11704EB5171C1F394
:10110000C701074A11701046007800EB4001C1EB9F
:10111000C0104FF6FF7101EAC0000249088010BDFF
:10112000300000203200002008B54FF4A060FFF727
:1011300067FDFFF783F9A820FFF7D8FFFFF758F9FD
:1011400000200323062205210090FFF7CBF843E09F
:1011500022480078C8B9002013E00121002207E0EE
:1011600001EB81034FF6FF7404EA4301531CDAB22A
:101170008242F5DB1A4A125C4A431A4B1A80411C20
:10118000C8B2194909788842E7DB18480078154940
:101190000880084600880012154908701148007838
:1011A000487008211248FFF7C5F912490870124823
:1011B000FFF7AAF9114908700E48007820B94FF4DA
:1011C00000610F48FFF7D6FC0C48007820B14FF4BF
:1011D00080510B48FFF7CEFCBAE700000B0000205F
:1011E00003000020000000200C000020020000206E
:1011F0000F0000200D000020170000200E0000202E
:10120000000802404FF04070E1EE100A7047000005
:10121000301200080000002034000000C401000863
:1012200064120008340000208C060000E001000871
:1012300000000000000000000000000000000000AE
:10124000000000000000000000000000000000009E
:10125000000000010203040102030406070809005C
:04126000000000008A
:040000050800018965
:00000001FF
